{
	"compilerInput": "{\"language\":\"Solidity\",\"sources\":{\"contracts/PaginaRegistro.sol\":{\"content\":\" SPDX-License-Identifier: MIT\\npragma solidity ^0.8.0;\\n\\ncontract PagoRegistro {\\n    struct Pago {\\n        uint256 orderId;\\n        string payer;\\n        uint256 amount;\\n        uint256 timestamp;\\n    }\\n\\n    Pago[] public pagos;\\n\\n    event PagoRegistrado(uint256 orderId, string payer, uint256 amount, uint256 timestamp);\\n\\n    function registrarPago(uint256 _orderId, string memory _payer, uint256 _amount) public {\\n        pagos.push(Pago(_orderId, _payer, _amount, block.timestamp));\\n        emit PagoRegistrado(_orderId, _payer, _amount, block.timestamp);\\n    }\\n\\n    function obtenerPagos() public view returns (Pago[] memory) {\\n        return pagos;\\n    }\\n\\n    function totalPagos() public view returns (uint256) {\\n        return pagos.length;\\n    }\\n}\\n\"}},\"settings\":{\"optimizer\":{\"enabled\":false,\"runs\":200},\"outputSelection\":{\"*\":{\"\":[\"ast\"],\"*\":[\"abi\",\"metadata\",\"devdoc\",\"userdoc\",\"storageLayout\",\"evm.legacyAssembly\",\"evm.bytecode\",\"evm.deployedBytecode\",\"evm.methodIdentifiers\",\"evm.gasEstimates\",\"evm.assembly\"]}},\"remappings\":[]}}",
	"name": "PagoRegistro",
	"bytecode": {
		"linkReferences": {},
		"object": "6080604052348015600e575f80fd5b50610ae48061001c5f395ff3fe608060405234801561000f575f80fd5b506004361061004a575f3560e01c8063185244a81461004e5780633deed02a1461006c57806372000c6e1461009f578063dc28e72a146100bd575b5f80fd5b6100566100d9565b604051610063919061050d565b60405180910390f35b61008660048036038101906100819190610568565b6101e1565b60405161009694939291906105ea565b60405180910390f35b6100a76102a1565b6040516100b49190610634565b60405180910390f35b6100d760048036038101906100d29190610779565b6102ac565b005b60605f805480602002602001604051908101604052809291908181526020015f905b828210156101d8578382905f5260205f2090600402016040518060800160405290815f820154815260200160018201805461013590610812565b80601f016020809104026020016040519081016040528092919081815260200182805461016190610812565b80156101ac5780601f10610183576101008083540402835291602001916101ac565b820191905f5260205f20905b81548152906001019060200180831161018f57829003601f168201915b5050505050815260200160028201548152602001600382015481525050815260200190600101906100fb565b50505050905090565b5f81815481106101ef575f80fd5b905f5260205f2090600402015f91509050805f01549080600101805461021490610812565b80601f016020809104026020016040519081016040528092919081815260200182805461024090610812565b801561028b5780601f106102625761010080835404028352916020019161028b565b820191905f5260205f20905b81548152906001019060200180831161026e57829003601f168201915b5050505050908060020154908060030154905084565b5f8080549050905090565b5f604051806080016040528085815260200184815260200183815260200142815250908060018154018082558091505060019003905f5260205f2090600402015f909190919091505f820151815f0155602082015181600101908161031191906109df565b50604082015181600201556060820151816003015550507fd6a0ae9b78a634487f4fc9cee391ed7fd8caff4282abba6bba220ebd33ce69808383834260405161035d94939291906105ea565b60405180910390a1505050565b5f81519050919050565b5f82825260208201905092915050565b5f819050602082019050919050565b5f819050919050565b6103a581610393565b82525050565b5f81519050919050565b5f82825260208201905092915050565b8281835e5f83830152505050565b5f601f19601f8301169050919050565b5f6103ed826103ab565b6103f781856103b5565b93506104078185602086016103c5565b610410816103d3565b840191505092915050565b5f608083015f8301516104305f86018261039c565b506020830151848203602086015261044882826103e3565b915050604083015161045d604086018261039c565b506060830151610470606086018261039c565b508091505092915050565b5f610486838361041b565b905092915050565b5f602082019050919050565b5f6104a48261036a565b6104ae8185610374565b9350836020820285016104c085610384565b805f5b858110156104fb57848403895281516104dc858261047b565b94506104e78361048e565b925060208a019950506001810190506104c3565b50829750879550505050505092915050565b5f6020820190508181035f830152610525818461049a565b905092915050565b5f604051905090565b5f80fd5b5f80fd5b61054781610393565b8114610551575f80fd5b50565b5f813590506105628161053e565b92915050565b5f6020828403121561057d5761057c610536565b5b5f61058a84828501610554565b91505092915050565b61059c81610393565b82525050565b5f82825260208201905092915050565b5f6105bc826103ab565b6105c681856105a2565b93506105d68185602086016103c5565b6105df816103d3565b840191505092915050565b5f6080820190506105fd5f830187610593565b818103602083015261060f81866105b2565b905061061e6040830185610593565b61062b6060830184610593565b95945050505050565b5f6020820190506106475f830184610593565b92915050565b5f80fd5b5f80fd5b7f4e487b71000000000000000000000000000000000000000000000000000000005f52604160045260245ffd5b61068b826103d3565b810181811067ffffffffffffffff821117156106aa576106a9610655565b5b80604052505050565b5f6106bc61052d565b90506106c88282610682565b919050565b5f67ffffffffffffffff8211156106e7576106e6610655565b5b6106f0826103d3565b9050602081019050919050565b828183375f83830152505050565b5f61071d610718846106cd565b6106b3565b90508281526020810184848401111561073957610738610651565b5b6107448482856106fd565b509392505050565b5f82601f8301126107605761075f61064d565b5b813561077084826020860161070b565b91505092915050565b5f805f606084860312156107905761078f610536565b5b5f61079d86828701610554565b935050602084013567ffffffffffffffff8111156107be576107bd61053a565b5b6107ca8682870161074c565b92505060406107db86828701610554565b9150509250925092565b7f4e487b71000000000000000000000000000000000000000000000000000000005f52602260045260245ffd5b5f600282049050600182168061082957607f821691505b60208210810361083c5761083b6107e5565b5b50919050565b5f819050815f5260205f209050919050565b5f6020601f8301049050919050565b5f82821b905092915050565b5f6008830261089e7fffffffffffffffffffffffffffffffffffffffffffffffffffffffffffffffff82610863565b6108a88683610863565b95508019841693508086168417925050509392505050565b5f819050919050565b5f6108e36108de6108d984610393565b6108c0565b610393565b9050919050565b5f819050919050565b6108fc836108c9565b610910610908826108ea565b84845461086f565b825550505050565b5f90565b610924610918565b61092f8184846108f3565b505050565b5b81811015610952576109475f8261091c565b600181019050610935565b5050565b601f8211156109975761096881610842565b61097184610854565b81016020851015610980578190505b61099461098c85610854565b830182610934565b50505b505050565b5f82821c905092915050565b5f6109b75f198460080261099c565b1980831691505092915050565b5f6109cf83836109a8565b9150826002028217905092915050565b6109e8826103ab565b67ffffffffffffffff811115610a0157610a00610655565b5b610a0b8254610812565b610a16828285610956565b5f60209050601f831160018114610a47575f8415610a35578287015190505b610a3f85826109c4565b865550610aa6565b601f198416610a5586610842565b5f5b82811015610a7c57848901518255600182019150602085019450602081019050610a57565b86831015610a995784890151610a95601f8916826109a8565b8355505b6001600288020188555050505b50505050505056fea26469706673582212205e81e82a25f264c5b17932dc3684e4aaa9f14dcfe6b0bae166714038d03969e464736f6c634300081a0033",
		"opcodes": "PUSH1 0x80 PUSH1 0x40 MSTORE CALLVALUE DUP1 ISZERO PUSH1 0xE JUMPI PUSH0 DUP1 REVERT JUMPDEST POP PUSH2 0xAE4 DUP1 PUSH2 0x1C PUSH0 CODECOPY PUSH0 RETURN INVALID PUSH1 0x80 PUSH1 0x40 MSTORE CALLVALUE DUP1 ISZERO PUSH2 0xF JUMPI PUSH0 DUP1 REVERT JUMPDEST POP PUSH1 0x4 CALLDATASIZE LT PUSH2 0x4A JUMPI PUSH0 CALLDATALOAD PUSH1 0xE0 SHR DUP1 PUSH4 0x185244A8 EQ PUSH2 0x4E JUMPI DUP1 PUSH4 0x3DEED02A EQ PUSH2 0x6C JUMPI DUP1 PUSH4 0x72000C6E EQ PUSH2 0x9F JUMPI DUP1 PUSH4 0xDC28E72A EQ PUSH2 0xBD JUMPI JUMPDEST PUSH0 DUP1 REVERT JUMPDEST PUSH2 0x56 PUSH2 0xD9 JUMP JUMPDEST PUSH1 0x40 MLOAD PUSH2 0x63 SWAP2 SWAP1 PUSH2 0x50D JUMP JUMPDEST PUSH1 0x40 MLOAD DUP1 SWAP2 SUB SWAP1 RETURN JUMPDEST PUSH2 0x86 PUSH1 0x4 DUP1 CALLDATASIZE SUB DUP2 ADD SWAP1 PUSH2 0x81 SWAP2 SWAP1 PUSH2 0x568 JUMP JUMPDEST PUSH2 0x1E1 JUMP JUMPDEST PUSH1 0x40 MLOAD PUSH2 0x96 SWAP5 SWAP4 SWAP3 SWAP2 SWAP1 PUSH2 0x5EA JUMP JUMPDEST PUSH1 0x40 MLOAD DUP1 SWAP2 SUB SWAP1 RETURN JUMPDEST PUSH2 0xA7 PUSH2 0x2A1 JUMP JUMPDEST PUSH1 0x40 MLOAD PUSH2 0xB4 SWAP2 SWAP1 PUSH2 0x634 JUMP JUMPDEST PUSH1 0x40 MLOAD DUP1 SWAP2 SUB SWAP1 RETURN JUMPDEST PUSH2 0xD7 PUSH1 0x4 DUP1 CALLDATASIZE SUB DUP2 ADD SWAP1 PUSH2 0xD2 SWAP2 SWAP1 PUSH2 0x779 JUMP JUMPDEST PUSH2 0x2AC JUMP JUMPDEST STOP JUMPDEST PUSH1 0x60 PUSH0 DUP1 SLOAD DUP1 PUSH1 0x20 MUL PUSH1 0x20 ADD PUSH1 0x40 MLOAD SWAP1 DUP2 ADD PUSH1 0x40 MSTORE DUP1 SWAP3 SWAP2 SWAP1 DUP2 DUP2 MSTORE PUSH1 0x20 ADD PUSH0 SWAP1 JUMPDEST DUP3 DUP3 LT ISZERO PUSH2 0x1D8 JUMPI DUP4 DUP3 SWAP1 PUSH0 MSTORE PUSH1 0x20 PUSH0 KECCAK256 SWAP1 PUSH1 0x4 MUL ADD PUSH1 0x40 MLOAD DUP1 PUSH1 0x80 ADD PUSH1 0x40 MSTORE SWAP1 DUP2 PUSH0 DUP3 ADD SLOAD DUP2 MSTORE PUSH1 0x20 ADD PUSH1 0x1 DUP3 ADD DUP1 SLOAD PUSH2 0x135 SWAP1 PUSH2 0x812 JUMP JUMPDEST DUP1 PUSH1 0x1F ADD PUSH1 0x20 DUP1 SWAP2 DIV MUL PUSH1 0x20 ADD PUSH1 0x40 MLOAD SWAP1 DUP2 ADD PUSH1 0x40 MSTORE DUP1 SWAP3 SWAP2 SWAP1 DUP2 DUP2 MSTORE PUSH1 0x20 ADD DUP3 DUP1 SLOAD PUSH2 0x161 SWAP1 PUSH2 0x812 JUMP JUMPDEST DUP1 ISZERO PUSH2 0x1AC JUMPI DUP1 PUSH1 0x1F LT PUSH2 0x183 JUMPI PUSH2 0x100 DUP1 DUP4 SLOAD DIV MUL DUP4 MSTORE SWAP2 PUSH1 0x20 ADD SWAP2 PUSH2 0x1AC JUMP JUMPDEST DUP3 ADD SWAP2 SWAP1 PUSH0 MSTORE PUSH1 0x20 PUSH0 KECCAK256 SWAP1 JUMPDEST DUP2 SLOAD DUP2 MSTORE SWAP1 PUSH1 0x1 ADD SWAP1 PUSH1 0x20 ADD DUP1 DUP4 GT PUSH2 0x18F JUMPI DUP3 SWAP1 SUB PUSH1 0x1F AND DUP3 ADD SWAP2 JUMPDEST POP POP POP POP POP DUP2 MSTORE PUSH1 0x20 ADD PUSH1 0x2 DUP3 ADD SLOAD DUP2 MSTORE PUSH1 0x20 ADD PUSH1 0x3 DUP3 ADD SLOAD DUP2 MSTORE POP POP DUP2 MSTORE PUSH1 0x20 ADD SWAP1 PUSH1 0x1 ADD SWAP1 PUSH2 0xFB JUMP JUMPDEST POP POP POP POP SWAP1 POP SWAP1 JUMP JUMPDEST PUSH0 DUP2 DUP2 SLOAD DUP2 LT PUSH2 0x1EF JUMPI PUSH0 DUP1 REVERT JUMPDEST SWAP1 PUSH0 MSTORE PUSH1 0x20 PUSH0 KECCAK256 SWAP1 PUSH1 0x4 MUL ADD PUSH0 SWAP2 POP SWAP1 POP DUP1 PUSH0 ADD SLOAD SWAP1 DUP1 PUSH1 0x1 ADD DUP1 SLOAD PUSH2 0x214 SWAP1 PUSH2 0x812 JUMP JUMPDEST DUP1 PUSH1 0x1F ADD PUSH1 0x20 DUP1 SWAP2 DIV MUL PUSH1 0x20 ADD PUSH1 0x40 MLOAD SWAP1 DUP2 ADD PUSH1 0x40 MSTORE DUP1 SWAP3 SWAP2 SWAP1 DUP2 DUP2 MSTORE PUSH1 0x20 ADD DUP3 DUP1 SLOAD PUSH2 0x240 SWAP1 PUSH2 0x812 JUMP JUMPDEST DUP1 ISZERO PUSH2 0x28B JUMPI DUP1 PUSH1 0x1F LT PUSH2 0x262 JUMPI PUSH2 0x100 DUP1 DUP4 SLOAD DIV MUL DUP4 MSTORE SWAP2 PUSH1 0x20 ADD SWAP2 PUSH2 0x28B JUMP JUMPDEST DUP3 ADD SWAP2 SWAP1 PUSH0 MSTORE PUSH1 0x20 PUSH0 KECCAK256 SWAP1 JUMPDEST DUP2 SLOAD DUP2 MSTORE SWAP1 PUSH1 0x1 ADD SWAP1 PUSH1 0x20 ADD DUP1 DUP4 GT PUSH2 0x26E JUMPI DUP3 SWAP1 SUB PUSH1 0x1F AND DUP3 ADD SWAP2 JUMPDEST POP POP POP POP POP SWAP1 DUP1 PUSH1 0x2 ADD SLOAD SWAP1 DUP1 PUSH1 0x3 ADD SLOAD SWAP1 POP DUP5 JUMP JUMPDEST PUSH0 DUP1 DUP1 SLOAD SWAP1 POP SWAP1 POP SWAP1 JUMP JUMPDEST PUSH0 PUSH1 0x40 MLOAD DUP1 PUSH1 0x80 ADD PUSH1 0x40 MSTORE DUP1 DUP6 DUP2 MSTORE PUSH1 0x20 ADD DUP5 DUP2 MSTORE PUSH1 0x20 ADD DUP4 DUP2 MSTORE PUSH1 0x20 ADD TIMESTAMP DUP2 MSTORE POP SWAP1 DUP1 PUSH1 0x1 DUP2 SLOAD ADD DUP1 DUP3 SSTORE DUP1 SWAP2 POP POP PUSH1 0x1 SWAP1 SUB SWAP1 PUSH0 MSTORE PUSH1 0x20 PUSH0 KECCAK256 SWAP1 PUSH1 0x4 MUL ADD PUSH0 SWAP1 SWAP2 SWAP1 SWAP2 SWAP1 SWAP2 POP PUSH0 DUP3 ADD MLOAD DUP2 PUSH0 ADD SSTORE PUSH1 0x20 DUP3 ADD MLOAD DUP2 PUSH1 0x1 ADD SWAP1 DUP2 PUSH2 0x311 SWAP2 SWAP1 PUSH2 0x9DF JUMP JUMPDEST POP PUSH1 0x40 DUP3 ADD MLOAD DUP2 PUSH1 0x2 ADD SSTORE PUSH1 0x60 DUP3 ADD MLOAD DUP2 PUSH1 0x3 ADD SSTORE POP POP PUSH32 0xD6A0AE9B78A634487F4FC9CEE391ED7FD8CAFF4282ABBA6BBA220EBD33CE6980 DUP4 DUP4 DUP4 TIMESTAMP PUSH1 0x40 MLOAD PUSH2 0x35D SWAP5 SWAP4 SWAP3 SWAP2 SWAP1 PUSH2 0x5EA JUMP JUMPDEST PUSH1 0x40 MLOAD DUP1 SWAP2 SUB SWAP1 LOG1 POP POP POP JUMP JUMPDEST PUSH0 DUP2 MLOAD SWAP1 POP SWAP2 SWAP1 POP JUMP JUMPDEST PUSH0 DUP3 DUP3 MSTORE PUSH1 0x20 DUP3 ADD SWAP1 POP SWAP3 SWAP2 POP POP JUMP JUMPDEST PUSH0 DUP2 SWAP1 POP PUSH1 0x20 DUP3 ADD SWAP1 POP SWAP2 SWAP1 POP JUMP JUMPDEST PUSH0 DUP2 SWAP1 POP SWAP2 SWAP1 POP JUMP JUMPDEST PUSH2 0x3A5 DUP2 PUSH2 0x393 JUMP JUMPDEST DUP3 MSTORE POP POP JUMP JUMPDEST PUSH0 DUP2 MLOAD SWAP1 POP SWAP2 SWAP1 POP JUMP JUMPDEST PUSH0 DUP3 DUP3 MSTORE PUSH1 0x20 DUP3 ADD SWAP1 POP SWAP3 SWAP2 POP POP JUMP JUMPDEST DUP3 DUP2 DUP4 MCOPY PUSH0 DUP4 DUP4 ADD MSTORE POP POP POP JUMP JUMPDEST PUSH0 PUSH1 0x1F NOT PUSH1 0x1F DUP4 ADD AND SWAP1 POP SWAP2 SWAP1 POP JUMP JUMPDEST PUSH0 PUSH2 0x3ED DUP3 PUSH2 0x3AB JUMP JUMPDEST PUSH2 0x3F7 DUP2 DUP6 PUSH2 0x3B5 JUMP JUMPDEST SWAP4 POP PUSH2 0x407 DUP2 DUP6 PUSH1 0x20 DUP7 ADD PUSH2 0x3C5 JUMP JUMPDEST PUSH2 0x410 DUP2 PUSH2 0x3D3 JUMP JUMPDEST DUP5 ADD SWAP2 POP POP SWAP3 SWAP2 POP POP JUMP JUMPDEST PUSH0 PUSH1 0x80 DUP4 ADD PUSH0 DUP4 ADD MLOAD PUSH2 0x430 PUSH0 DUP7 ADD DUP3 PUSH2 0x39C JUMP JUMPDEST POP PUSH1 0x20 DUP4 ADD MLOAD DUP5 DUP3 SUB PUSH1 0x20 DUP7 ADD MSTORE PUSH2 0x448 DUP3 DUP3 PUSH2 0x3E3 JUMP JUMPDEST SWAP2 POP POP PUSH1 0x40 DUP4 ADD MLOAD PUSH2 0x45D PUSH1 0x40 DUP7 ADD DUP3 PUSH2 0x39C JUMP JUMPDEST POP PUSH1 0x60 DUP4 ADD MLOAD PUSH2 0x470 PUSH1 0x60 DUP7 ADD DUP3 PUSH2 0x39C JUMP JUMPDEST POP DUP1 SWAP2 POP POP SWAP3 SWAP2 POP POP JUMP JUMPDEST PUSH0 PUSH2 0x486 DUP4 DUP4 PUSH2 0x41B JUMP JUMPDEST SWAP1 POP SWAP3 SWAP2 POP POP JUMP JUMPDEST PUSH0 PUSH1 0x20 DUP3 ADD SWAP1 POP SWAP2 SWAP1 POP JUMP JUMPDEST PUSH0 PUSH2 0x4A4 DUP3 PUSH2 0x36A JUMP JUMPDEST PUSH2 0x4AE DUP2 DUP6 PUSH2 0x374 JUMP JUMPDEST SWAP4 POP DUP4 PUSH1 0x20 DUP3 MUL DUP6 ADD PUSH2 0x4C0 DUP6 PUSH2 0x384 JUMP JUMPDEST DUP1 PUSH0 JUMPDEST DUP6 DUP2 LT ISZERO PUSH2 0x4FB JUMPI DUP5 DUP5 SUB DUP10 MSTORE DUP2 MLOAD PUSH2 0x4DC DUP6 DUP3 PUSH2 0x47B JUMP JUMPDEST SWAP5 POP PUSH2 0x4E7 DUP4 PUSH2 0x48E JUMP JUMPDEST SWAP3 POP PUSH1 0x20 DUP11 ADD SWAP10 POP POP PUSH1 0x1 DUP2 ADD SWAP1 POP PUSH2 0x4C3 JUMP JUMPDEST POP DUP3 SWAP8 POP DUP8 SWAP6 POP POP POP POP POP POP SWAP3 SWAP2 POP POP JUMP JUMPDEST PUSH0 PUSH1 0x20 DUP3 ADD SWAP1 POP DUP2 DUP2 SUB PUSH0 DUP4 ADD MSTORE PUSH2 0x525 DUP2 DUP5 PUSH2 0x49A JUMP JUMPDEST SWAP1 POP SWAP3 SWAP2 POP POP JUMP JUMPDEST PUSH0 PUSH1 0x40 MLOAD SWAP1 POP SWAP1 JUMP JUMPDEST PUSH0 DUP1 REVERT JUMPDEST PUSH0 DUP1 REVERT JUMPDEST PUSH2 0x547 DUP2 PUSH2 0x393 JUMP JUMPDEST DUP2 EQ PUSH2 0x551 JUMPI PUSH0 DUP1 REVERT JUMPDEST POP JUMP JUMPDEST PUSH0 DUP2 CALLDATALOAD SWAP1 POP PUSH2 0x562 DUP2 PUSH2 0x53E JUMP JUMPDEST SWAP3 SWAP2 POP POP JUMP JUMPDEST PUSH0 PUSH1 0x20 DUP3 DUP5 SUB SLT ISZERO PUSH2 0x57D JUMPI PUSH2 0x57C PUSH2 0x536 JUMP JUMPDEST JUMPDEST PUSH0 PUSH2 0x58A DUP5 DUP3 DUP6 ADD PUSH2 0x554 JUMP JUMPDEST SWAP2 POP POP SWAP3 SWAP2 POP POP JUMP JUMPDEST PUSH2 0x59C DUP2 PUSH2 0x393 JUMP JUMPDEST DUP3 MSTORE POP POP JUMP JUMPDEST PUSH0 DUP3 DUP3 MSTORE PUSH1 0x20 DUP3 ADD SWAP1 POP SWAP3 SWAP2 POP POP JUMP JUMPDEST PUSH0 PUSH2 0x5BC DUP3 PUSH2 0x3AB JUMP JUMPDEST PUSH2 0x5C6 DUP2 DUP6 PUSH2 0x5A2 JUMP JUMPDEST SWAP4 POP PUSH2 0x5D6 DUP2 DUP6 PUSH1 0x20 DUP7 ADD PUSH2 0x3C5 JUMP JUMPDEST PUSH2 0x5DF DUP2 PUSH2 0x3D3 JUMP JUMPDEST DUP5 ADD SWAP2 POP POP SWAP3 SWAP2 POP POP JUMP JUMPDEST PUSH0 PUSH1 0x80 DUP3 ADD SWAP1 POP PUSH2 0x5FD PUSH0 DUP4 ADD DUP8 PUSH2 0x593 JUMP JUMPDEST DUP2 DUP2 SUB PUSH1 0x20 DUP4 ADD MSTORE PUSH2 0x60F DUP2 DUP7 PUSH2 0x5B2 JUMP JUMPDEST SWAP1 POP PUSH2 0x61E PUSH1 0x40 DUP4 ADD DUP6 PUSH2 0x593 JUMP JUMPDEST PUSH2 0x62B PUSH1 0x60 DUP4 ADD DUP5 PUSH2 0x593 JUMP JUMPDEST SWAP6 SWAP5 POP POP POP POP POP JUMP JUMPDEST PUSH0 PUSH1 0x20 DUP3 ADD SWAP1 POP PUSH2 0x647 PUSH0 DUP4 ADD DUP5 PUSH2 0x593 JUMP JUMPDEST SWAP3 SWAP2 POP POP JUMP JUMPDEST PUSH0 DUP1 REVERT JUMPDEST PUSH0 DUP1 REVERT JUMPDEST PUSH32 0x4E487B7100000000000000000000000000000000000000000000000000000000 PUSH0 MSTORE PUSH1 0x41 PUSH1 0x4 MSTORE PUSH1 0x24 PUSH0 REVERT JUMPDEST PUSH2 0x68B DUP3 PUSH2 0x3D3 JUMP JUMPDEST DUP2 ADD DUP2 DUP2 LT PUSH8 0xFFFFFFFFFFFFFFFF DUP3 GT OR ISZERO PUSH2 0x6AA JUMPI PUSH2 0x6A9 PUSH2 0x655 JUMP JUMPDEST JUMPDEST DUP1 PUSH1 0x40 MSTORE POP POP POP JUMP JUMPDEST PUSH0 PUSH2 0x6BC PUSH2 0x52D JUMP JUMPDEST SWAP1 POP PUSH2 0x6C8 DUP3 DUP3 PUSH2 0x682 JUMP JUMPDEST SWAP2 SWAP1 POP JUMP JUMPDEST PUSH0 PUSH8 0xFFFFFFFFFFFFFFFF DUP3 GT ISZERO PUSH2 0x6E7 JUMPI PUSH2 0x6E6 PUSH2 0x655 JUMP JUMPDEST JUMPDEST PUSH2 0x6F0 DUP3 PUSH2 0x3D3 JUMP JUMPDEST SWAP1 POP PUSH1 0x20 DUP2 ADD SWAP1 POP SWAP2 SWAP1 POP JUMP JUMPDEST DUP3 DUP2 DUP4 CALLDATACOPY PUSH0 DUP4 DUP4 ADD MSTORE POP POP POP JUMP JUMPDEST PUSH0 PUSH2 0x71D PUSH2 0x718 DUP5 PUSH2 0x6CD JUMP JUMPDEST PUSH2 0x6B3 JUMP JUMPDEST SWAP1 POP DUP3 DUP2 MSTORE PUSH1 0x20 DUP2 ADD DUP5 DUP5 DUP5 ADD GT ISZERO PUSH2 0x739 JUMPI PUSH2 0x738 PUSH2 0x651 JUMP JUMPDEST JUMPDEST PUSH2 0x744 DUP5 DUP3 DUP6 PUSH2 0x6FD JUMP JUMPDEST POP SWAP4 SWAP3 POP POP POP JUMP JUMPDEST PUSH0 DUP3 PUSH1 0x1F DUP4 ADD SLT PUSH2 0x760 JUMPI PUSH2 0x75F PUSH2 0x64D JUMP JUMPDEST JUMPDEST DUP2 CALLDATALOAD PUSH2 0x770 DUP5 DUP3 PUSH1 0x20 DUP7 ADD PUSH2 0x70B JUMP JUMPDEST SWAP2 POP POP SWAP3 SWAP2 POP POP JUMP JUMPDEST PUSH0 DUP1 PUSH0 PUSH1 0x60 DUP5 DUP7 SUB SLT ISZERO PUSH2 0x790 JUMPI PUSH2 0x78F PUSH2 0x536 JUMP JUMPDEST JUMPDEST PUSH0 PUSH2 0x79D DUP7 DUP3 DUP8 ADD PUSH2 0x554 JUMP JUMPDEST SWAP4 POP POP PUSH1 0x20 DUP5 ADD CALLDATALOAD PUSH8 0xFFFFFFFFFFFFFFFF DUP2 GT ISZERO PUSH2 0x7BE JUMPI PUSH2 0x7BD PUSH2 0x53A JUMP JUMPDEST JUMPDEST PUSH2 0x7CA DUP7 DUP3 DUP8 ADD PUSH2 0x74C JUMP JUMPDEST SWAP3 POP POP PUSH1 0x40 PUSH2 0x7DB DUP7 DUP3 DUP8 ADD PUSH2 0x554 JUMP JUMPDEST SWAP2 POP POP SWAP3 POP SWAP3 POP SWAP3 JUMP JUMPDEST PUSH32 0x4E487B7100000000000000000000000000000000000000000000000000000000 PUSH0 MSTORE PUSH1 0x22 PUSH1 0x4 MSTORE PUSH1 0x24 PUSH0 REVERT JUMPDEST PUSH0 PUSH1 0x2 DUP3 DIV SWAP1 POP PUSH1 0x1 DUP3 AND DUP1 PUSH2 0x829 JUMPI PUSH1 0x7F DUP3 AND SWAP2 POP JUMPDEST PUSH1 0x20 DUP3 LT DUP2 SUB PUSH2 0x83C JUMPI PUSH2 0x83B PUSH2 0x7E5 JUMP JUMPDEST JUMPDEST POP SWAP2 SWAP1 POP JUMP JUMPDEST PUSH0 DUP2 SWAP1 POP DUP2 PUSH0 MSTORE PUSH1 0x20 PUSH0 KECCAK256 SWAP1 POP SWAP2 SWAP1 POP JUMP JUMPDEST PUSH0 PUSH1 0x20 PUSH1 0x1F DUP4 ADD DIV SWAP1 POP SWAP2 SWAP1 POP JUMP JUMPDEST PUSH0 DUP3 DUP3 SHL SWAP1 POP SWAP3 SWAP2 POP POP JUMP JUMPDEST PUSH0 PUSH1 0x8 DUP4 MUL PUSH2 0x89E PUSH32 0xFFFFFFFFFFFFFFFFFFFFFFFFFFFFFFFFFFFFFFFFFFFFFFFFFFFFFFFFFFFFFFFF DUP3 PUSH2 0x863 JUMP JUMPDEST PUSH2 0x8A8 DUP7 DUP4 PUSH2 0x863 JUMP JUMPDEST SWAP6 POP DUP1 NOT DUP5 AND SWAP4 POP DUP1 DUP7 AND DUP5 OR SWAP3 POP POP POP SWAP4 SWAP3 POP POP POP JUMP JUMPDEST PUSH0 DUP2 SWAP1 POP SWAP2 SWAP1 POP JUMP JUMPDEST PUSH0 PUSH2 0x8E3 PUSH2 0x8DE PUSH2 0x8D9 DUP5 PUSH2 0x393 JUMP JUMPDEST PUSH2 0x8C0 JUMP JUMPDEST PUSH2 0x393 JUMP JUMPDEST SWAP1 POP SWAP2 SWAP1 POP JUMP JUMPDEST PUSH0 DUP2 SWAP1 POP SWAP2 SWAP1 POP JUMP JUMPDEST PUSH2 0x8FC DUP4 PUSH2 0x8C9 JUMP JUMPDEST PUSH2 0x910 PUSH2 0x908 DUP3 PUSH2 0x8EA JUMP JUMPDEST DUP5 DUP5 SLOAD PUSH2 0x86F JUMP JUMPDEST DUP3 SSTORE POP POP POP POP JUMP JUMPDEST PUSH0 SWAP1 JUMP JUMPDEST PUSH2 0x924 PUSH2 0x918 JUMP JUMPDEST PUSH2 0x92F DUP2 DUP5 DUP5 PUSH2 0x8F3 JUMP JUMPDEST POP POP POP JUMP JUMPDEST JUMPDEST DUP2 DUP2 LT ISZERO PUSH2 0x952 JUMPI PUSH2 0x947 PUSH0 DUP3 PUSH2 0x91C JUMP JUMPDEST PUSH1 0x1 DUP2 ADD SWAP1 POP PUSH2 0x935 JUMP JUMPDEST POP POP JUMP JUMPDEST PUSH1 0x1F DUP3 GT ISZERO PUSH2 0x997 JUMPI PUSH2 0x968 DUP2 PUSH2 0x842 JUMP JUMPDEST PUSH2 0x971 DUP5 PUSH2 0x854 JUMP JUMPDEST DUP2 ADD PUSH1 0x20 DUP6 LT ISZERO PUSH2 0x980 JUMPI DUP2 SWAP1 POP JUMPDEST PUSH2 0x994 PUSH2 0x98C DUP6 PUSH2 0x854 JUMP JUMPDEST DUP4 ADD DUP3 PUSH2 0x934 JUMP JUMPDEST POP POP JUMPDEST POP POP POP JUMP JUMPDEST PUSH0 DUP3 DUP3 SHR SWAP1 POP SWAP3 SWAP2 POP POP JUMP JUMPDEST PUSH0 PUSH2 0x9B7 PUSH0 NOT DUP5 PUSH1 0x8 MUL PUSH2 0x99C JUMP JUMPDEST NOT DUP1 DUP4 AND SWAP2 POP POP SWAP3 SWAP2 POP POP JUMP JUMPDEST PUSH0 PUSH2 0x9CF DUP4 DUP4 PUSH2 0x9A8 JUMP JUMPDEST SWAP2 POP DUP3 PUSH1 0x2 MUL DUP3 OR SWAP1 POP SWAP3 SWAP2 POP POP JUMP JUMPDEST PUSH2 0x9E8 DUP3 PUSH2 0x3AB JUMP JUMPDEST PUSH8 0xFFFFFFFFFFFFFFFF DUP2 GT ISZERO PUSH2 0xA01 JUMPI PUSH2 0xA00 PUSH2 0x655 JUMP JUMPDEST JUMPDEST PUSH2 0xA0B DUP3 SLOAD PUSH2 0x812 JUMP JUMPDEST PUSH2 0xA16 DUP3 DUP3 DUP6 PUSH2 0x956 JUMP JUMPDEST PUSH0 PUSH1 0x20 SWAP1 POP PUSH1 0x1F DUP4 GT PUSH1 0x1 DUP2 EQ PUSH2 0xA47 JUMPI PUSH0 DUP5 ISZERO PUSH2 0xA35 JUMPI DUP3 DUP8 ADD MLOAD SWAP1 POP JUMPDEST PUSH2 0xA3F DUP6 DUP3 PUSH2 0x9C4 JUMP JUMPDEST DUP7 SSTORE POP PUSH2 0xAA6 JUMP JUMPDEST PUSH1 0x1F NOT DUP5 AND PUSH2 0xA55 DUP7 PUSH2 0x842 JUMP JUMPDEST PUSH0 JUMPDEST DUP3 DUP2 LT ISZERO PUSH2 0xA7C JUMPI DUP5 DUP10 ADD MLOAD DUP3 SSTORE PUSH1 0x1 DUP3 ADD SWAP2 POP PUSH1 0x20 DUP6 ADD SWAP5 POP PUSH1 0x20 DUP2 ADD SWAP1 POP PUSH2 0xA57 JUMP JUMPDEST DUP7 DUP4 LT ISZERO PUSH2 0xA99 JUMPI DUP5 DUP10 ADD MLOAD PUSH2 0xA95 PUSH1 0x1F DUP10 AND DUP3 PUSH2 0x9A8 JUMP JUMPDEST DUP4 SSTORE POP JUMPDEST PUSH1 0x1 PUSH1 0x2 DUP9 MUL ADD DUP9 SSTORE POP POP POP JUMPDEST POP POP POP POP POP POP JUMP INVALID LOG2 PUSH5 0x6970667358 0x22 SLT KECCAK256 MCOPY DUP2 0xE8 0x2A 0x25 CALLCODE PUSH5 0xC5B17932DC CALLDATASIZE DUP5 0xE4 0xAA 0xA9 CALL 0x4D 0xCF 0xE6 0xB0 0xBA 0xE1 PUSH7 0x714038D03969E4 PUSH5 0x736F6C6343 STOP ADDMOD BYTE STOP CALLER "
	},
	"abi": [
		{
			"anonymous": false,
			"inputs": [
				{
					"indexed": false,
					"internalType": "uint256",
					"name": "orderId",
					"type": "uint256"
				},
				{
					"indexed": false,
					"internalType": "string",
					"name": "payer",
					"type": "string"
				},
				{
					"indexed": false,
					"internalType": "uint256",
					"name": "amount",
					"type": "uint256"
				},
				{
					"indexed": false,
					"internalType": "uint256",
					"name": "timestamp",
					"type": "uint256"
				}
			],
			"name": "PagoRegistrado",
			"type": "event"
		},
		{
			"inputs": [],
			"name": "obtenerPagos",
			"outputs": [
				{
					"components": [
						{
							"internalType": "uint256",
							"name": "orderId",
							"type": "uint256"
						},
						{
							"internalType": "string",
							"name": "payer",
							"type": "string"
						},
						{
							"internalType": "uint256",
							"name": "amount",
							"type": "uint256"
						},
						{
							"internalType": "uint256",
							"name": "timestamp",
							"type": "uint256"
						}
					],
					"internalType": "struct PagoRegistro.Pago[]",
					"name": "",
					"type": "tuple[]"
				}
			],
			"stateMutability": "view",
			"type": "function"
		},
		{
			"inputs": [
				{
					"internalType": "uint256",
					"name": "",
					"type": "uint256"
				}
			],
			"name": "pagos",
			"outputs": [
				{
					"internalType": "uint256",
					"name": "orderId",
					"type": "uint256"
				},
				{
					"internalType": "string",
					"name": "payer",
					"type": "string"
				},
				{
					"internalType": "uint256",
					"name": "amount",
					"type": "uint256"
				},
				{
					"internalType": "uint256",
					"name": "timestamp",
					"type": "uint256"
				}
			],
			"stateMutability": "view",
			"type": "function"
		},
		{
			"inputs": [
				{
					"internalType": "uint256",
					"name": "_orderId",
					"type": "uint256"
				},
				{
					"internalType": "string",
					"name": "_payer",
					"type": "string"
				},
				{
					"internalType": "uint256",
					"name": "_amount",
					"type": "uint256"
				}
			],
			"name": "registrarPago",
			"outputs": [],
			"stateMutability": "nonpayable",
			"type": "function"
		},
		{
			"inputs": [],
			"name": "totalPagos",
			"outputs": [
				{
					"internalType": "uint256",
					"name": "",
					"type": "uint256"
				}
			],
			"stateMutability": "view",
			"type": "function"
		}
	],
	"storageLayout": {
		"storage": [
			{
				"astId": 14,
				"contract": "contracts/PaginaRegistro.sol:PagoRegistro",
				"label": "pagos",
				"offset": 0,
				"slot": "0",
				"type": "t_array(t_struct(Pago)10_storage)dyn_storage"
			}
		],
		"types": {
			"t_array(t_struct(Pago)10_storage)dyn_storage": {
				"base": "t_struct(Pago)10_storage",
				"encoding": "dynamic_array",
				"label": "struct PagoRegistro.Pago[]",
				"numberOfBytes": "32"
			},
			"t_string_storage": {
				"encoding": "bytes",
				"label": "string",
				"numberOfBytes": "32"
			},
			"t_struct(Pago)10_storage": {
				"encoding": "inplace",
				"label": "struct PagoRegistro.Pago",
				"members": [
					{
						"astId": 3,
						"contract": "contracts/PaginaRegistro.sol:PagoRegistro",
						"label": "orderId",
						"offset": 0,
						"slot": "0",
						"type": "t_uint256"
					},
					{
						"astId": 5,
						"contract": "contracts/PaginaRegistro.sol:PagoRegistro",
						"label": "payer",
						"offset": 0,
						"slot": "1",
						"type": "t_string_storage"
					},
					{
						"astId": 7,
						"contract": "contracts/PaginaRegistro.sol:PagoRegistro",
						"label": "amount",
						"offset": 0,
						"slot": "2",
						"type": "t_uint256"
					},
					{
						"astId": 9,
						"contract": "contracts/PaginaRegistro.sol:PagoRegistro",
						"label": "timestamp",
						"offset": 0,
						"slot": "3",
						"type": "t_uint256"
					}
				],
				"numberOfBytes": "128"
			},
			"t_uint256": {
				"encoding": "inplace",
				"label": "uint256",
				"numberOfBytes": "32"
			}
		}
	},
	"web3Deploy": "var pagoregistroContract = new web3.eth.Contract([{\"anonymous\":false,\"inputs\":[{\"indexed\":false,\"internalType\":\"uint256\",\"name\":\"orderId\",\"type\":\"uint256\"},{\"indexed\":false,\"internalType\":\"string\",\"name\":\"payer\",\"type\":\"string\"},{\"indexed\":false,\"internalType\":\"uint256\",\"name\":\"amount\",\"type\":\"uint256\"},{\"indexed\":false,\"internalType\":\"uint256\",\"name\":\"timestamp\",\"type\":\"uint256\"}],\"name\":\"PagoRegistrado\",\"type\":\"event\"},{\"inputs\":[],\"name\":\"obtenerPagos\",\"outputs\":[{\"components\":[{\"internalType\":\"uint256\",\"name\":\"orderId\",\"type\":\"uint256\"},{\"internalType\":\"string\",\"name\":\"payer\",\"type\":\"string\"},{\"internalType\":\"uint256\",\"name\":\"amount\",\"type\":\"uint256\"},{\"internalType\":\"uint256\",\"name\":\"timestamp\",\"type\":\"uint256\"}],\"internalType\":\"struct PagoRegistro.Pago[]\",\"name\":\"\",\"type\":\"tuple[]\"}],\"stateMutability\":\"view\",\"type\":\"function\"},{\"inputs\":[{\"internalType\":\"uint256\",\"name\":\"\",\"type\":\"uint256\"}],\"name\":\"pagos\",\"outputs\":[{\"internalType\":\"uint256\",\"name\":\"orderId\",\"type\":\"uint256\"},{\"internalType\":\"string\",\"name\":\"payer\",\"type\":\"string\"},{\"internalType\":\"uint256\",\"name\":\"amount\",\"type\":\"uint256\"},{\"internalType\":\"uint256\",\"name\":\"timestamp\",\"type\":\"uint256\"}],\"stateMutability\":\"view\",\"type\":\"function\"},{\"inputs\":[{\"internalType\":\"uint256\",\"name\":\"_orderId\",\"type\":\"uint256\"},{\"internalType\":\"string\",\"name\":\"_payer\",\"type\":\"string\"},{\"internalType\":\"uint256\",\"name\":\"_amount\",\"type\":\"uint256\"}],\"name\":\"registrarPago\",\"outputs\":[],\"stateMutability\":\"nonpayable\",\"type\":\"function\"},{\"inputs\":[],\"name\":\"totalPagos\",\"outputs\":[{\"internalType\":\"uint256\",\"name\":\"\",\"type\":\"uint256\"}],\"stateMutability\":\"view\",\"type\":\"function\"}]);\nvar pagoregistro = pagoregistroContract.deploy({\n     data: '0x6080604052348015600e575f80fd5b50610ae48061001c5f395ff3fe608060405234801561000f575f80fd5b506004361061004a575f3560e01c8063185244a81461004e5780633deed02a1461006c57806372000c6e1461009f578063dc28e72a146100bd575b5f80fd5b6100566100d9565b604051610063919061050d565b60405180910390f35b61008660048036038101906100819190610568565b6101e1565b60405161009694939291906105ea565b60405180910390f35b6100a76102a1565b6040516100b49190610634565b60405180910390f35b6100d760048036038101906100d29190610779565b6102ac565b005b60605f805480602002602001604051908101604052809291908181526020015f905b828210156101d8578382905f5260205f2090600402016040518060800160405290815f820154815260200160018201805461013590610812565b80601f016020809104026020016040519081016040528092919081815260200182805461016190610812565b80156101ac5780601f10610183576101008083540402835291602001916101ac565b820191905f5260205f20905b81548152906001019060200180831161018f57829003601f168201915b5050505050815260200160028201548152602001600382015481525050815260200190600101906100fb565b50505050905090565b5f81815481106101ef575f80fd5b905f5260205f2090600402015f91509050805f01549080600101805461021490610812565b80601f016020809104026020016040519081016040528092919081815260200182805461024090610812565b801561028b5780601f106102625761010080835404028352916020019161028b565b820191905f5260205f20905b81548152906001019060200180831161026e57829003601f168201915b5050505050908060020154908060030154905084565b5f8080549050905090565b5f604051806080016040528085815260200184815260200183815260200142815250908060018154018082558091505060019003905f5260205f2090600402015f909190919091505f820151815f0155602082015181600101908161031191906109df565b50604082015181600201556060820151816003015550507fd6a0ae9b78a634487f4fc9cee391ed7fd8caff4282abba6bba220ebd33ce69808383834260405161035d94939291906105ea565b60405180910390a1505050565b5f81519050919050565b5f82825260208201905092915050565b5f819050602082019050919050565b5f819050919050565b6103a581610393565b82525050565b5f81519050919050565b5f82825260208201905092915050565b8281835e5f83830152505050565b5f601f19601f8301169050919050565b5f6103ed826103ab565b6103f781856103b5565b93506104078185602086016103c5565b610410816103d3565b840191505092915050565b5f608083015f8301516104305f86018261039c565b506020830151848203602086015261044882826103e3565b915050604083015161045d604086018261039c565b506060830151610470606086018261039c565b508091505092915050565b5f610486838361041b565b905092915050565b5f602082019050919050565b5f6104a48261036a565b6104ae8185610374565b9350836020820285016104c085610384565b805f5b858110156104fb57848403895281516104dc858261047b565b94506104e78361048e565b925060208a019950506001810190506104c3565b50829750879550505050505092915050565b5f6020820190508181035f830152610525818461049a565b905092915050565b5f604051905090565b5f80fd5b5f80fd5b61054781610393565b8114610551575f80fd5b50565b5f813590506105628161053e565b92915050565b5f6020828403121561057d5761057c610536565b5b5f61058a84828501610554565b91505092915050565b61059c81610393565b82525050565b5f82825260208201905092915050565b5f6105bc826103ab565b6105c681856105a2565b93506105d68185602086016103c5565b6105df816103d3565b840191505092915050565b5f6080820190506105fd5f830187610593565b818103602083015261060f81866105b2565b905061061e6040830185610593565b61062b6060830184610593565b95945050505050565b5f6020820190506106475f830184610593565b92915050565b5f80fd5b5f80fd5b7f4e487b71000000000000000000000000000000000000000000000000000000005f52604160045260245ffd5b61068b826103d3565b810181811067ffffffffffffffff821117156106aa576106a9610655565b5b80604052505050565b5f6106bc61052d565b90506106c88282610682565b919050565b5f67ffffffffffffffff8211156106e7576106e6610655565b5b6106f0826103d3565b9050602081019050919050565b828183375f83830152505050565b5f61071d610718846106cd565b6106b3565b90508281526020810184848401111561073957610738610651565b5b6107448482856106fd565b509392505050565b5f82601f8301126107605761075f61064d565b5b813561077084826020860161070b565b91505092915050565b5f805f606084860312156107905761078f610536565b5b5f61079d86828701610554565b935050602084013567ffffffffffffffff8111156107be576107bd61053a565b5b6107ca8682870161074c565b92505060406107db86828701610554565b9150509250925092565b7f4e487b71000000000000000000000000000000000000000000000000000000005f52602260045260245ffd5b5f600282049050600182168061082957607f821691505b60208210810361083c5761083b6107e5565b5b50919050565b5f819050815f5260205f209050919050565b5f6020601f8301049050919050565b5f82821b905092915050565b5f6008830261089e7fffffffffffffffffffffffffffffffffffffffffffffffffffffffffffffffff82610863565b6108a88683610863565b95508019841693508086168417925050509392505050565b5f819050919050565b5f6108e36108de6108d984610393565b6108c0565b610393565b9050919050565b5f819050919050565b6108fc836108c9565b610910610908826108ea565b84845461086f565b825550505050565b5f90565b610924610918565b61092f8184846108f3565b505050565b5b81811015610952576109475f8261091c565b600181019050610935565b5050565b601f8211156109975761096881610842565b61097184610854565b81016020851015610980578190505b61099461098c85610854565b830182610934565b50505b505050565b5f82821c905092915050565b5f6109b75f198460080261099c565b1980831691505092915050565b5f6109cf83836109a8565b9150826002028217905092915050565b6109e8826103ab565b67ffffffffffffffff811115610a0157610a00610655565b5b610a0b8254610812565b610a16828285610956565b5f60209050601f831160018114610a47575f8415610a35578287015190505b610a3f85826109c4565b865550610aa6565b601f198416610a5586610842565b5f5b82811015610a7c57848901518255600182019150602085019450602081019050610a57565b86831015610a995784890151610a95601f8916826109a8565b8355505b6001600288020188555050505b50505050505056fea26469706673582212205e81e82a25f264c5b17932dc3684e4aaa9f14dcfe6b0bae166714038d03969e464736f6c634300081a0033', \n     arguments: [\n     ]\n}).send({\n     from: web3.eth.accounts[0], \n     gas: '4700000'\n   }, function (e, contract){\n    console.log(e, contract);\n    if (typeof contract.address !== 'undefined') {\n         console.log('Contract mined! address: ' + contract.address + ' transactionHash: ' + contract.transactionHash);\n    }\n })",
	"functionHashes": {
		"185244a8": "obtenerPagos()",
		"3deed02a": "pagos(uint256)",
		"dc28e72a": "registrarPago(uint256,string,uint256)",
		"72000c6e": "totalPagos()"
	},
	"gasEstimates": {
		"Creation": {
			"codeDepositCost": "557600",
			"executionCost": "592",
			"totalCost": "558192"
		},
		"External": {
			"obtenerPagos()": "infinite",
			"pagos(uint256)": "infinite",
			"registrarPago(uint256,string,uint256)": "infinite",
			"totalPagos()": "2462"
		}
	},
	"devdoc": {
		"kind": "dev",
		"methods": {},
		"version": 1
	},
	"userdoc": {
		"kind": "user",
		"methods": {},
		"version": 1
	},
	"Runtime Bytecode": {
		"immutableReferences": {},
		"linkReferences": {},
		"object": "608060405234801561000f575f80fd5b506004361061004a575f3560e01c8063185244a81461004e5780633deed02a1461006c57806372000c6e1461009f578063dc28e72a146100bd575b5f80fd5b6100566100d9565b604051610063919061050d565b60405180910390f35b61008660048036038101906100819190610568565b6101e1565b60405161009694939291906105ea565b60405180910390f35b6100a76102a1565b6040516100b49190610634565b60405180910390f35b6100d760048036038101906100d29190610779565b6102ac565b005b60605f805480602002602001604051908101604052809291908181526020015f905b828210156101d8578382905f5260205f2090600402016040518060800160405290815f820154815260200160018201805461013590610812565b80601f016020809104026020016040519081016040528092919081815260200182805461016190610812565b80156101ac5780601f10610183576101008083540402835291602001916101ac565b820191905f5260205f20905b81548152906001019060200180831161018f57829003601f168201915b5050505050815260200160028201548152602001600382015481525050815260200190600101906100fb565b50505050905090565b5f81815481106101ef575f80fd5b905f5260205f2090600402015f91509050805f01549080600101805461021490610812565b80601f016020809104026020016040519081016040528092919081815260200182805461024090610812565b801561028b5780601f106102625761010080835404028352916020019161028b565b820191905f5260205f20905b81548152906001019060200180831161026e57829003601f168201915b5050505050908060020154908060030154905084565b5f8080549050905090565b5f604051806080016040528085815260200184815260200183815260200142815250908060018154018082558091505060019003905f5260205f2090600402015f909190919091505f820151815f0155602082015181600101908161031191906109df565b50604082015181600201556060820151816003015550507fd6a0ae9b78a634487f4fc9cee391ed7fd8caff4282abba6bba220ebd33ce69808383834260405161035d94939291906105ea565b60405180910390a1505050565b5f81519050919050565b5f82825260208201905092915050565b5f819050602082019050919050565b5f819050919050565b6103a581610393565b82525050565b5f81519050919050565b5f82825260208201905092915050565b8281835e5f83830152505050565b5f601f19601f8301169050919050565b5f6103ed826103ab565b6103f781856103b5565b93506104078185602086016103c5565b610410816103d3565b840191505092915050565b5f608083015f8301516104305f86018261039c565b506020830151848203602086015261044882826103e3565b915050604083015161045d604086018261039c565b506060830151610470606086018261039c565b508091505092915050565b5f610486838361041b565b905092915050565b5f602082019050919050565b5f6104a48261036a565b6104ae8185610374565b9350836020820285016104c085610384565b805f5b858110156104fb57848403895281516104dc858261047b565b94506104e78361048e565b925060208a019950506001810190506104c3565b50829750879550505050505092915050565b5f6020820190508181035f830152610525818461049a565b905092915050565b5f604051905090565b5f80fd5b5f80fd5b61054781610393565b8114610551575f80fd5b50565b5f813590506105628161053e565b92915050565b5f6020828403121561057d5761057c610536565b5b5f61058a84828501610554565b91505092915050565b61059c81610393565b82525050565b5f82825260208201905092915050565b5f6105bc826103ab565b6105c681856105a2565b93506105d68185602086016103c5565b6105df816103d3565b840191505092915050565b5f6080820190506105fd5f830187610593565b818103602083015261060f81866105b2565b905061061e6040830185610593565b61062b6060830184610593565b95945050505050565b5f6020820190506106475f830184610593565b92915050565b5f80fd5b5f80fd5b7f4e487b71000000000000000000000000000000000000000000000000000000005f52604160045260245ffd5b61068b826103d3565b810181811067ffffffffffffffff821117156106aa576106a9610655565b5b80604052505050565b5f6106bc61052d565b90506106c88282610682565b919050565b5f67ffffffffffffffff8211156106e7576106e6610655565b5b6106f0826103d3565b9050602081019050919050565b828183375f83830152505050565b5f61071d610718846106cd565b6106b3565b90508281526020810184848401111561073957610738610651565b5b6107448482856106fd565b509392505050565b5f82601f8301126107605761075f61064d565b5b813561077084826020860161070b565b91505092915050565b5f805f606084860312156107905761078f610536565b5b5f61079d86828701610554565b935050602084013567ffffffffffffffff8111156107be576107bd61053a565b5b6107ca8682870161074c565b92505060406107db86828701610554565b9150509250925092565b7f4e487b71000000000000000000000000000000000000000000000000000000005f52602260045260245ffd5b5f600282049050600182168061082957607f821691505b60208210810361083c5761083b6107e5565b5b50919050565b5f819050815f5260205f209050919050565b5f6020601f8301049050919050565b5f82821b905092915050565b5f6008830261089e7fffffffffffffffffffffffffffffffffffffffffffffffffffffffffffffffff82610863565b6108a88683610863565b95508019841693508086168417925050509392505050565b5f819050919050565b5f6108e36108de6108d984610393565b6108c0565b610393565b9050919050565b5f819050919050565b6108fc836108c9565b610910610908826108ea565b84845461086f565b825550505050565b5f90565b610924610918565b61092f8184846108f3565b505050565b5b81811015610952576109475f8261091c565b600181019050610935565b5050565b601f8211156109975761096881610842565b61097184610854565b81016020851015610980578190505b61099461098c85610854565b830182610934565b50505b505050565b5f82821c905092915050565b5f6109b75f198460080261099c565b1980831691505092915050565b5f6109cf83836109a8565b9150826002028217905092915050565b6109e8826103ab565b67ffffffffffffffff811115610a0157610a00610655565b5b610a0b8254610812565b610a16828285610956565b5f60209050601f831160018114610a47575f8415610a35578287015190505b610a3f85826109c4565b865550610aa6565b601f198416610a5586610842565b5f5b82811015610a7c57848901518255600182019150602085019450602081019050610a57565b86831015610a995784890151610a95601f8916826109a8565b8355505b6001600288020188555050505b50505050505056fea26469706673582212205e81e82a25f264c5b17932dc3684e4aaa9f14dcfe6b0bae166714038d03969e464736f6c634300081a0033",
		"opcodes": "PUSH1 0x80 PUSH1 0x40 MSTORE CALLVALUE DUP1 ISZERO PUSH2 0xF JUMPI PUSH0 DUP1 REVERT JUMPDEST POP PUSH1 0x4 CALLDATASIZE LT PUSH2 0x4A JUMPI PUSH0 CALLDATALOAD PUSH1 0xE0 SHR DUP1 PUSH4 0x185244A8 EQ PUSH2 0x4E JUMPI DUP1 PUSH4 0x3DEED02A EQ PUSH2 0x6C JUMPI DUP1 PUSH4 0x72000C6E EQ PUSH2 0x9F JUMPI DUP1 PUSH4 0xDC28E72A EQ PUSH2 0xBD JUMPI JUMPDEST PUSH0 DUP1 REVERT JUMPDEST PUSH2 0x56 PUSH2 0xD9 JUMP JUMPDEST PUSH1 0x40 MLOAD PUSH2 0x63 SWAP2 SWAP1 PUSH2 0x50D JUMP JUMPDEST PUSH1 0x40 MLOAD DUP1 SWAP2 SUB SWAP1 RETURN JUMPDEST PUSH2 0x86 PUSH1 0x4 DUP1 CALLDATASIZE SUB DUP2 ADD SWAP1 PUSH2 0x81 SWAP2 SWAP1 PUSH2 0x568 JUMP JUMPDEST PUSH2 0x1E1 JUMP JUMPDEST PUSH1 0x40 MLOAD PUSH2 0x96 SWAP5 SWAP4 SWAP3 SWAP2 SWAP1 PUSH2 0x5EA JUMP JUMPDEST PUSH1 0x40 MLOAD DUP1 SWAP2 SUB SWAP1 RETURN JUMPDEST PUSH2 0xA7 PUSH2 0x2A1 JUMP JUMPDEST PUSH1 0x40 MLOAD PUSH2 0xB4 SWAP2 SWAP1 PUSH2 0x634 JUMP JUMPDEST PUSH1 0x40 MLOAD DUP1 SWAP2 SUB SWAP1 RETURN JUMPDEST PUSH2 0xD7 PUSH1 0x4 DUP1 CALLDATASIZE SUB DUP2 ADD SWAP1 PUSH2 0xD2 SWAP2 SWAP1 PUSH2 0x779 JUMP JUMPDEST PUSH2 0x2AC JUMP JUMPDEST STOP JUMPDEST PUSH1 0x60 PUSH0 DUP1 SLOAD DUP1 PUSH1 0x20 MUL PUSH1 0x20 ADD PUSH1 0x40 MLOAD SWAP1 DUP2 ADD PUSH1 0x40 MSTORE DUP1 SWAP3 SWAP2 SWAP1 DUP2 DUP2 MSTORE PUSH1 0x20 ADD PUSH0 SWAP1 JUMPDEST DUP3 DUP3 LT ISZERO PUSH2 0x1D8 JUMPI DUP4 DUP3 SWAP1 PUSH0 MSTORE PUSH1 0x20 PUSH0 KECCAK256 SWAP1 PUSH1 0x4 MUL ADD PUSH1 0x40 MLOAD DUP1 PUSH1 0x80 ADD PUSH1 0x40 MSTORE SWAP1 DUP2 PUSH0 DUP3 ADD SLOAD DUP2 MSTORE PUSH1 0x20 ADD PUSH1 0x1 DUP3 ADD DUP1 SLOAD PUSH2 0x135 SWAP1 PUSH2 0x812 JUMP JUMPDEST DUP1 PUSH1 0x1F ADD PUSH1 0x20 DUP1 SWAP2 DIV MUL PUSH1 0x20 ADD PUSH1 0x40 MLOAD SWAP1 DUP2 ADD PUSH1 0x40 MSTORE DUP1 SWAP3 SWAP2 SWAP1 DUP2 DUP2 MSTORE PUSH1 0x20 ADD DUP3 DUP1 SLOAD PUSH2 0x161 SWAP1 PUSH2 0x812 JUMP JUMPDEST DUP1 ISZERO PUSH2 0x1AC JUMPI DUP1 PUSH1 0x1F LT PUSH2 0x183 JUMPI PUSH2 0x100 DUP1 DUP4 SLOAD DIV MUL DUP4 MSTORE SWAP2 PUSH1 0x20 ADD SWAP2 PUSH2 0x1AC JUMP JUMPDEST DUP3 ADD SWAP2 SWAP1 PUSH0 MSTORE PUSH1 0x20 PUSH0 KECCAK256 SWAP1 JUMPDEST DUP2 SLOAD DUP2 MSTORE SWAP1 PUSH1 0x1 ADD SWAP1 PUSH1 0x20 ADD DUP1 DUP4 GT PUSH2 0x18F JUMPI DUP3 SWAP1 SUB PUSH1 0x1F AND DUP3 ADD SWAP2 JUMPDEST POP POP POP POP POP DUP2 MSTORE PUSH1 0x20 ADD PUSH1 0x2 DUP3 ADD SLOAD DUP2 MSTORE PUSH1 0x20 ADD PUSH1 0x3 DUP3 ADD SLOAD DUP2 MSTORE POP POP DUP2 MSTORE PUSH1 0x20 ADD SWAP1 PUSH1 0x1 ADD SWAP1 PUSH2 0xFB JUMP JUMPDEST POP POP POP POP SWAP1 POP SWAP1 JUMP JUMPDEST PUSH0 DUP2 DUP2 SLOAD DUP2 LT PUSH2 0x1EF JUMPI PUSH0 DUP1 REVERT JUMPDEST SWAP1 PUSH0 MSTORE PUSH1 0x20 PUSH0 KECCAK256 SWAP1 PUSH1 0x4 MUL ADD PUSH0 SWAP2 POP SWAP1 POP DUP1 PUSH0 ADD SLOAD SWAP1 DUP1 PUSH1 0x1 ADD DUP1 SLOAD PUSH2 0x214 SWAP1 PUSH2 0x812 JUMP JUMPDEST DUP1 PUSH1 0x1F ADD PUSH1 0x20 DUP1 SWAP2 DIV MUL PUSH1 0x20 ADD PUSH1 0x40 MLOAD SWAP1 DUP2 ADD PUSH1 0x40 MSTORE DUP1 SWAP3 SWAP2 SWAP1 DUP2 DUP2 MSTORE PUSH1 0x20 ADD DUP3 DUP1 SLOAD PUSH2 0x240 SWAP1 PUSH2 0x812 JUMP JUMPDEST DUP1 ISZERO PUSH2 0x28B JUMPI DUP1 PUSH1 0x1F LT PUSH2 0x262 JUMPI PUSH2 0x100 DUP1 DUP4 SLOAD DIV MUL DUP4 MSTORE SWAP2 PUSH1 0x20 ADD SWAP2 PUSH2 0x28B JUMP JUMPDEST DUP3 ADD SWAP2 SWAP1 PUSH0 MSTORE PUSH1 0x20 PUSH0 KECCAK256 SWAP1 JUMPDEST DUP2 SLOAD DUP2 MSTORE SWAP1 PUSH1 0x1 ADD SWAP1 PUSH1 0x20 ADD DUP1 DUP4 GT PUSH2 0x26E JUMPI DUP3 SWAP1 SUB PUSH1 0x1F AND DUP3 ADD SWAP2 JUMPDEST POP POP POP POP POP SWAP1 DUP1 PUSH1 0x2 ADD SLOAD SWAP1 DUP1 PUSH1 0x3 ADD SLOAD SWAP1 POP DUP5 JUMP JUMPDEST PUSH0 DUP1 DUP1 SLOAD SWAP1 POP SWAP1 POP SWAP1 JUMP JUMPDEST PUSH0 PUSH1 0x40 MLOAD DUP1 PUSH1 0x80 ADD PUSH1 0x40 MSTORE DUP1 DUP6 DUP2 MSTORE PUSH1 0x20 ADD DUP5 DUP2 MSTORE PUSH1 0x20 ADD DUP4 DUP2 MSTORE PUSH1 0x20 ADD TIMESTAMP DUP2 MSTORE POP SWAP1 DUP1 PUSH1 0x1 DUP2 SLOAD ADD DUP1 DUP3 SSTORE DUP1 SWAP2 POP POP PUSH1 0x1 SWAP1 SUB SWAP1 PUSH0 MSTORE PUSH1 0x20 PUSH0 KECCAK256 SWAP1 PUSH1 0x4 MUL ADD PUSH0 SWAP1 SWAP2 SWAP1 SWAP2 SWAP1 SWAP2 POP PUSH0 DUP3 ADD MLOAD DUP2 PUSH0 ADD SSTORE PUSH1 0x20 DUP3 ADD MLOAD DUP2 PUSH1 0x1 ADD SWAP1 DUP2 PUSH2 0x311 SWAP2 SWAP1 PUSH2 0x9DF JUMP JUMPDEST POP PUSH1 0x40 DUP3 ADD MLOAD DUP2 PUSH1 0x2 ADD SSTORE PUSH1 0x60 DUP3 ADD MLOAD DUP2 PUSH1 0x3 ADD SSTORE POP POP PUSH32 0xD6A0AE9B78A634487F4FC9CEE391ED7FD8CAFF4282ABBA6BBA220EBD33CE6980 DUP4 DUP4 DUP4 TIMESTAMP PUSH1 0x40 MLOAD PUSH2 0x35D SWAP5 SWAP4 SWAP3 SWAP2 SWAP1 PUSH2 0x5EA JUMP JUMPDEST PUSH1 0x40 MLOAD DUP1 SWAP2 SUB SWAP1 LOG1 POP POP POP JUMP JUMPDEST PUSH0 DUP2 MLOAD SWAP1 POP SWAP2 SWAP1 POP JUMP JUMPDEST PUSH0 DUP3 DUP3 MSTORE PUSH1 0x20 DUP3 ADD SWAP1 POP SWAP3 SWAP2 POP POP JUMP JUMPDEST PUSH0 DUP2 SWAP1 POP PUSH1 0x20 DUP3 ADD SWAP1 POP SWAP2 SWAP1 POP JUMP JUMPDEST PUSH0 DUP2 SWAP1 POP SWAP2 SWAP1 POP JUMP JUMPDEST PUSH2 0x3A5 DUP2 PUSH2 0x393 JUMP JUMPDEST DUP3 MSTORE POP POP JUMP JUMPDEST PUSH0 DUP2 MLOAD SWAP1 POP SWAP2 SWAP1 POP JUMP JUMPDEST PUSH0 DUP3 DUP3 MSTORE PUSH1 0x20 DUP3 ADD SWAP1 POP SWAP3 SWAP2 POP POP JUMP JUMPDEST DUP3 DUP2 DUP4 MCOPY PUSH0 DUP4 DUP4 ADD MSTORE POP POP POP JUMP JUMPDEST PUSH0 PUSH1 0x1F NOT PUSH1 0x1F DUP4 ADD AND SWAP1 POP SWAP2 SWAP1 POP JUMP JUMPDEST PUSH0 PUSH2 0x3ED DUP3 PUSH2 0x3AB JUMP JUMPDEST PUSH2 0x3F7 DUP2 DUP6 PUSH2 0x3B5 JUMP JUMPDEST SWAP4 POP PUSH2 0x407 DUP2 DUP6 PUSH1 0x20 DUP7 ADD PUSH2 0x3C5 JUMP JUMPDEST PUSH2 0x410 DUP2 PUSH2 0x3D3 JUMP JUMPDEST DUP5 ADD SWAP2 POP POP SWAP3 SWAP2 POP POP JUMP JUMPDEST PUSH0 PUSH1 0x80 DUP4 ADD PUSH0 DUP4 ADD MLOAD PUSH2 0x430 PUSH0 DUP7 ADD DUP3 PUSH2 0x39C JUMP JUMPDEST POP PUSH1 0x20 DUP4 ADD MLOAD DUP5 DUP3 SUB PUSH1 0x20 DUP7 ADD MSTORE PUSH2 0x448 DUP3 DUP3 PUSH2 0x3E3 JUMP JUMPDEST SWAP2 POP POP PUSH1 0x40 DUP4 ADD MLOAD PUSH2 0x45D PUSH1 0x40 DUP7 ADD DUP3 PUSH2 0x39C JUMP JUMPDEST POP PUSH1 0x60 DUP4 ADD MLOAD PUSH2 0x470 PUSH1 0x60 DUP7 ADD DUP3 PUSH2 0x39C JUMP JUMPDEST POP DUP1 SWAP2 POP POP SWAP3 SWAP2 POP POP JUMP JUMPDEST PUSH0 PUSH2 0x486 DUP4 DUP4 PUSH2 0x41B JUMP JUMPDEST SWAP1 POP SWAP3 SWAP2 POP POP JUMP JUMPDEST PUSH0 PUSH1 0x20 DUP3 ADD SWAP1 POP SWAP2 SWAP1 POP JUMP JUMPDEST PUSH0 PUSH2 0x4A4 DUP3 PUSH2 0x36A JUMP JUMPDEST PUSH2 0x4AE DUP2 DUP6 PUSH2 0x374 JUMP JUMPDEST SWAP4 POP DUP4 PUSH1 0x20 DUP3 MUL DUP6 ADD PUSH2 0x4C0 DUP6 PUSH2 0x384 JUMP JUMPDEST DUP1 PUSH0 JUMPDEST DUP6 DUP2 LT ISZERO PUSH2 0x4FB JUMPI DUP5 DUP5 SUB DUP10 MSTORE DUP2 MLOAD PUSH2 0x4DC DUP6 DUP3 PUSH2 0x47B JUMP JUMPDEST SWAP5 POP PUSH2 0x4E7 DUP4 PUSH2 0x48E JUMP JUMPDEST SWAP3 POP PUSH1 0x20 DUP11 ADD SWAP10 POP POP PUSH1 0x1 DUP2 ADD SWAP1 POP PUSH2 0x4C3 JUMP JUMPDEST POP DUP3 SWAP8 POP DUP8 SWAP6 POP POP POP POP POP POP SWAP3 SWAP2 POP POP JUMP JUMPDEST PUSH0 PUSH1 0x20 DUP3 ADD SWAP1 POP DUP2 DUP2 SUB PUSH0 DUP4 ADD MSTORE PUSH2 0x525 DUP2 DUP5 PUSH2 0x49A JUMP JUMPDEST SWAP1 POP SWAP3 SWAP2 POP POP JUMP JUMPDEST PUSH0 PUSH1 0x40 MLOAD SWAP1 POP SWAP1 JUMP JUMPDEST PUSH0 DUP1 REVERT JUMPDEST PUSH0 DUP1 REVERT JUMPDEST PUSH2 0x547 DUP2 PUSH2 0x393 JUMP JUMPDEST DUP2 EQ PUSH2 0x551 JUMPI PUSH0 DUP1 REVERT JUMPDEST POP JUMP JUMPDEST PUSH0 DUP2 CALLDATALOAD SWAP1 POP PUSH2 0x562 DUP2 PUSH2 0x53E JUMP JUMPDEST SWAP3 SWAP2 POP POP JUMP JUMPDEST PUSH0 PUSH1 0x20 DUP3 DUP5 SUB SLT ISZERO PUSH2 0x57D JUMPI PUSH2 0x57C PUSH2 0x536 JUMP JUMPDEST JUMPDEST PUSH0 PUSH2 0x58A DUP5 DUP3 DUP6 ADD PUSH2 0x554 JUMP JUMPDEST SWAP2 POP POP SWAP3 SWAP2 POP POP JUMP JUMPDEST PUSH2 0x59C DUP2 PUSH2 0x393 JUMP JUMPDEST DUP3 MSTORE POP POP JUMP JUMPDEST PUSH0 DUP3 DUP3 MSTORE PUSH1 0x20 DUP3 ADD SWAP1 POP SWAP3 SWAP2 POP POP JUMP JUMPDEST PUSH0 PUSH2 0x5BC DUP3 PUSH2 0x3AB JUMP JUMPDEST PUSH2 0x5C6 DUP2 DUP6 PUSH2 0x5A2 JUMP JUMPDEST SWAP4 POP PUSH2 0x5D6 DUP2 DUP6 PUSH1 0x20 DUP7 ADD PUSH2 0x3C5 JUMP JUMPDEST PUSH2 0x5DF DUP2 PUSH2 0x3D3 JUMP JUMPDEST DUP5 ADD SWAP2 POP POP SWAP3 SWAP2 POP POP JUMP JUMPDEST PUSH0 PUSH1 0x80 DUP3 ADD SWAP1 POP PUSH2 0x5FD PUSH0 DUP4 ADD DUP8 PUSH2 0x593 JUMP JUMPDEST DUP2 DUP2 SUB PUSH1 0x20 DUP4 ADD MSTORE PUSH2 0x60F DUP2 DUP7 PUSH2 0x5B2 JUMP JUMPDEST SWAP1 POP PUSH2 0x61E PUSH1 0x40 DUP4 ADD DUP6 PUSH2 0x593 JUMP JUMPDEST PUSH2 0x62B PUSH1 0x60 DUP4 ADD DUP5 PUSH2 0x593 JUMP JUMPDEST SWAP6 SWAP5 POP POP POP POP POP JUMP JUMPDEST PUSH0 PUSH1 0x20 DUP3 ADD SWAP1 POP PUSH2 0x647 PUSH0 DUP4 ADD DUP5 PUSH2 0x593 JUMP JUMPDEST SWAP3 SWAP2 POP POP JUMP JUMPDEST PUSH0 DUP1 REVERT JUMPDEST PUSH0 DUP1 REVERT JUMPDEST PUSH32 0x4E487B7100000000000000000000000000000000000000000000000000000000 PUSH0 MSTORE PUSH1 0x41 PUSH1 0x4 MSTORE PUSH1 0x24 PUSH0 REVERT JUMPDEST PUSH2 0x68B DUP3 PUSH2 0x3D3 JUMP JUMPDEST DUP2 ADD DUP2 DUP2 LT PUSH8 0xFFFFFFFFFFFFFFFF DUP3 GT OR ISZERO PUSH2 0x6AA JUMPI PUSH2 0x6A9 PUSH2 0x655 JUMP JUMPDEST JUMPDEST DUP1 PUSH1 0x40 MSTORE POP POP POP JUMP JUMPDEST PUSH0 PUSH2 0x6BC PUSH2 0x52D JUMP JUMPDEST SWAP1 POP PUSH2 0x6C8 DUP3 DUP3 PUSH2 0x682 JUMP JUMPDEST SWAP2 SWAP1 POP JUMP JUMPDEST PUSH0 PUSH8 0xFFFFFFFFFFFFFFFF DUP3 GT ISZERO PUSH2 0x6E7 JUMPI PUSH2 0x6E6 PUSH2 0x655 JUMP JUMPDEST JUMPDEST PUSH2 0x6F0 DUP3 PUSH2 0x3D3 JUMP JUMPDEST SWAP1 POP PUSH1 0x20 DUP2 ADD SWAP1 POP SWAP2 SWAP1 POP JUMP JUMPDEST DUP3 DUP2 DUP4 CALLDATACOPY PUSH0 DUP4 DUP4 ADD MSTORE POP POP POP JUMP JUMPDEST PUSH0 PUSH2 0x71D PUSH2 0x718 DUP5 PUSH2 0x6CD JUMP JUMPDEST PUSH2 0x6B3 JUMP JUMPDEST SWAP1 POP DUP3 DUP2 MSTORE PUSH1 0x20 DUP2 ADD DUP5 DUP5 DUP5 ADD GT ISZERO PUSH2 0x739 JUMPI PUSH2 0x738 PUSH2 0x651 JUMP JUMPDEST JUMPDEST PUSH2 0x744 DUP5 DUP3 DUP6 PUSH2 0x6FD JUMP JUMPDEST POP SWAP4 SWAP3 POP POP POP JUMP JUMPDEST PUSH0 DUP3 PUSH1 0x1F DUP4 ADD SLT PUSH2 0x760 JUMPI PUSH2 0x75F PUSH2 0x64D JUMP JUMPDEST JUMPDEST DUP2 CALLDATALOAD PUSH2 0x770 DUP5 DUP3 PUSH1 0x20 DUP7 ADD PUSH2 0x70B JUMP JUMPDEST SWAP2 POP POP SWAP3 SWAP2 POP POP JUMP JUMPDEST PUSH0 DUP1 PUSH0 PUSH1 0x60 DUP5 DUP7 SUB SLT ISZERO PUSH2 0x790 JUMPI PUSH2 0x78F PUSH2 0x536 JUMP JUMPDEST JUMPDEST PUSH0 PUSH2 0x79D DUP7 DUP3 DUP8 ADD PUSH2 0x554 JUMP JUMPDEST SWAP4 POP POP PUSH1 0x20 DUP5 ADD CALLDATALOAD PUSH8 0xFFFFFFFFFFFFFFFF DUP2 GT ISZERO PUSH2 0x7BE JUMPI PUSH2 0x7BD PUSH2 0x53A JUMP JUMPDEST JUMPDEST PUSH2 0x7CA DUP7 DUP3 DUP8 ADD PUSH2 0x74C JUMP JUMPDEST SWAP3 POP POP PUSH1 0x40 PUSH2 0x7DB DUP7 DUP3 DUP8 ADD PUSH2 0x554 JUMP JUMPDEST SWAP2 POP POP SWAP3 POP SWAP3 POP SWAP3 JUMP JUMPDEST PUSH32 0x4E487B7100000000000000000000000000000000000000000000000000000000 PUSH0 MSTORE PUSH1 0x22 PUSH1 0x4 MSTORE PUSH1 0x24 PUSH0 REVERT JUMPDEST PUSH0 PUSH1 0x2 DUP3 DIV SWAP1 POP PUSH1 0x1 DUP3 AND DUP1 PUSH2 0x829 JUMPI PUSH1 0x7F DUP3 AND SWAP2 POP JUMPDEST PUSH1 0x20 DUP3 LT DUP2 SUB PUSH2 0x83C JUMPI PUSH2 0x83B PUSH2 0x7E5 JUMP JUMPDEST JUMPDEST POP SWAP2 SWAP1 POP JUMP JUMPDEST PUSH0 DUP2 SWAP1 POP DUP2 PUSH0 MSTORE PUSH1 0x20 PUSH0 KECCAK256 SWAP1 POP SWAP2 SWAP1 POP JUMP JUMPDEST PUSH0 PUSH1 0x20 PUSH1 0x1F DUP4 ADD DIV SWAP1 POP SWAP2 SWAP1 POP JUMP JUMPDEST PUSH0 DUP3 DUP3 SHL SWAP1 POP SWAP3 SWAP2 POP POP JUMP JUMPDEST PUSH0 PUSH1 0x8 DUP4 MUL PUSH2 0x89E PUSH32 0xFFFFFFFFFFFFFFFFFFFFFFFFFFFFFFFFFFFFFFFFFFFFFFFFFFFFFFFFFFFFFFFF DUP3 PUSH2 0x863 JUMP JUMPDEST PUSH2 0x8A8 DUP7 DUP4 PUSH2 0x863 JUMP JUMPDEST SWAP6 POP DUP1 NOT DUP5 AND SWAP4 POP DUP1 DUP7 AND DUP5 OR SWAP3 POP POP POP SWAP4 SWAP3 POP POP POP JUMP JUMPDEST PUSH0 DUP2 SWAP1 POP SWAP2 SWAP1 POP JUMP JUMPDEST PUSH0 PUSH2 0x8E3 PUSH2 0x8DE PUSH2 0x8D9 DUP5 PUSH2 0x393 JUMP JUMPDEST PUSH2 0x8C0 JUMP JUMPDEST PUSH2 0x393 JUMP JUMPDEST SWAP1 POP SWAP2 SWAP1 POP JUMP JUMPDEST PUSH0 DUP2 SWAP1 POP SWAP2 SWAP1 POP JUMP JUMPDEST PUSH2 0x8FC DUP4 PUSH2 0x8C9 JUMP JUMPDEST PUSH2 0x910 PUSH2 0x908 DUP3 PUSH2 0x8EA JUMP JUMPDEST DUP5 DUP5 SLOAD PUSH2 0x86F JUMP JUMPDEST DUP3 SSTORE POP POP POP POP JUMP JUMPDEST PUSH0 SWAP1 JUMP JUMPDEST PUSH2 0x924 PUSH2 0x918 JUMP JUMPDEST PUSH2 0x92F DUP2 DUP5 DUP5 PUSH2 0x8F3 JUMP JUMPDEST POP POP POP JUMP JUMPDEST JUMPDEST DUP2 DUP2 LT ISZERO PUSH2 0x952 JUMPI PUSH2 0x947 PUSH0 DUP3 PUSH2 0x91C JUMP JUMPDEST PUSH1 0x1 DUP2 ADD SWAP1 POP PUSH2 0x935 JUMP JUMPDEST POP POP JUMP JUMPDEST PUSH1 0x1F DUP3 GT ISZERO PUSH2 0x997 JUMPI PUSH2 0x968 DUP2 PUSH2 0x842 JUMP JUMPDEST PUSH2 0x971 DUP5 PUSH2 0x854 JUMP JUMPDEST DUP2 ADD PUSH1 0x20 DUP6 LT ISZERO PUSH2 0x980 JUMPI DUP2 SWAP1 POP JUMPDEST PUSH2 0x994 PUSH2 0x98C DUP6 PUSH2 0x854 JUMP JUMPDEST DUP4 ADD DUP3 PUSH2 0x934 JUMP JUMPDEST POP POP JUMPDEST POP POP POP JUMP JUMPDEST PUSH0 DUP3 DUP3 SHR SWAP1 POP SWAP3 SWAP2 POP POP JUMP JUMPDEST PUSH0 PUSH2 0x9B7 PUSH0 NOT DUP5 PUSH1 0x8 MUL PUSH2 0x99C JUMP JUMPDEST NOT DUP1 DUP4 AND SWAP2 POP POP SWAP3 SWAP2 POP POP JUMP JUMPDEST PUSH0 PUSH2 0x9CF DUP4 DUP4 PUSH2 0x9A8 JUMP JUMPDEST SWAP2 POP DUP3 PUSH1 0x2 MUL DUP3 OR SWAP1 POP SWAP3 SWAP2 POP POP JUMP JUMPDEST PUSH2 0x9E8 DUP3 PUSH2 0x3AB JUMP JUMPDEST PUSH8 0xFFFFFFFFFFFFFFFF DUP2 GT ISZERO PUSH2 0xA01 JUMPI PUSH2 0xA00 PUSH2 0x655 JUMP JUMPDEST JUMPDEST PUSH2 0xA0B DUP3 SLOAD PUSH2 0x812 JUMP JUMPDEST PUSH2 0xA16 DUP3 DUP3 DUP6 PUSH2 0x956 JUMP JUMPDEST PUSH0 PUSH1 0x20 SWAP1 POP PUSH1 0x1F DUP4 GT PUSH1 0x1 DUP2 EQ PUSH2 0xA47 JUMPI PUSH0 DUP5 ISZERO PUSH2 0xA35 JUMPI DUP3 DUP8 ADD MLOAD SWAP1 POP JUMPDEST PUSH2 0xA3F DUP6 DUP3 PUSH2 0x9C4 JUMP JUMPDEST DUP7 SSTORE POP PUSH2 0xAA6 JUMP JUMPDEST PUSH1 0x1F NOT DUP5 AND PUSH2 0xA55 DUP7 PUSH2 0x842 JUMP JUMPDEST PUSH0 JUMPDEST DUP3 DUP2 LT ISZERO PUSH2 0xA7C JUMPI DUP5 DUP10 ADD MLOAD DUP3 SSTORE PUSH1 0x1 DUP3 ADD SWAP2 POP PUSH1 0x20 DUP6 ADD SWAP5 POP PUSH1 0x20 DUP2 ADD SWAP1 POP PUSH2 0xA57 JUMP JUMPDEST DUP7 DUP4 LT ISZERO PUSH2 0xA99 JUMPI DUP5 DUP10 ADD MLOAD PUSH2 0xA95 PUSH1 0x1F DUP10 AND DUP3 PUSH2 0x9A8 JUMP JUMPDEST DUP4 SSTORE POP JUMPDEST PUSH1 0x1 PUSH1 0x2 DUP9 MUL ADD DUP9 SSTORE POP POP POP JUMPDEST POP POP POP POP POP POP JUMP INVALID LOG2 PUSH5 0x6970667358 0x22 SLT KECCAK256 MCOPY DUP2 0xE8 0x2A 0x25 CALLCODE PUSH5 0xC5B17932DC CALLDATASIZE DUP5 0xE4 0xAA 0xA9 CALL 0x4D 0xCF 0xE6 0xB0 0xBA 0xE1 PUSH7 0x714038D03969E4 PUSH5 0x736F6C6343 STOP ADDMOD BYTE STOP CALLER "
	},
	"Assembly": ".code\n  PUSH 80\t\t\tcontract PagoRegistro {\\n    s...\n  PUSH 40\t\t\tcontract PagoRegistro {\\n    s...\n  MSTORE \t\t\tcontract PagoRegistro {\\n    s...\n  CALLVALUE \t\t\tcontract PagoRegistro {\\n    s...\n  DUP1 \t\t\tcontract PagoRegistro {\\n    s...\n  ISZERO \t\t\tcontract PagoRegistro {\\n    s...\n  PUSH [tag] 1\t\t\tcontract PagoRegistro {\\n    s...\n  JUMPI \t\t\tcontract PagoRegistro {\\n    s...\n  PUSH 0\t\t\tcontract PagoRegistro {\\n    s...\n  DUP1 \t\t\tcontract PagoRegistro {\\n    s...\n  REVERT \t\t\tcontract PagoRegistro {\\n    s...\ntag 1\t\t\tcontract PagoRegistro {\\n    s...\n  JUMPDEST \t\t\tcontract PagoRegistro {\\n    s...\n  POP \t\t\tcontract PagoRegistro {\\n    s...\n  PUSH #[$] 0000000000000000000000000000000000000000000000000000000000000000\t\t\tcontract PagoRegistro {\\n    s...\n  DUP1 \t\t\tcontract PagoRegistro {\\n    s...\n  PUSH [$] 0000000000000000000000000000000000000000000000000000000000000000\t\t\tcontract PagoRegistro {\\n    s...\n  PUSH 0\t\t\tcontract PagoRegistro {\\n    s...\n  CODECOPY \t\t\tcontract PagoRegistro {\\n    s...\n  PUSH 0\t\t\tcontract PagoRegistro {\\n    s...\n  RETURN \t\t\tcontract PagoRegistro {\\n    s...\n.data\n  0:\n    .code\n      PUSH 80\t\t\tcontract PagoRegistro {\\n    s...\n      PUSH 40\t\t\tcontract PagoRegistro {\\n    s...\n      MSTORE \t\t\tcontract PagoRegistro {\\n    s...\n      CALLVALUE \t\t\tcontract PagoRegistro {\\n    s...\n      DUP1 \t\t\tcontract PagoRegistro {\\n    s...\n      ISZERO \t\t\tcontract PagoRegistro {\\n    s...\n      PUSH [tag] 1\t\t\tcontract PagoRegistro {\\n    s...\n      JUMPI \t\t\tcontract PagoRegistro {\\n    s...\n      PUSH 0\t\t\tcontract PagoRegistro {\\n    s...\n      DUP1 \t\t\tcontract PagoRegistro {\\n    s...\n      REVERT \t\t\tcontract PagoRegistro {\\n    s...\n    tag 1\t\t\tcontract PagoRegistro {\\n    s...\n      JUMPDEST \t\t\tcontract PagoRegistro {\\n    s...\n      POP \t\t\tcontract PagoRegistro {\\n    s...\n      PUSH 4\t\t\tcontract PagoRegistro {\\n    s...\n      CALLDATASIZE \t\t\tcontract PagoRegistro {\\n    s...\n      LT \t\t\tcontract PagoRegistro {\\n    s...\n      PUSH [tag] 2\t\t\tcontract PagoRegistro {\\n    s...\n      JUMPI \t\t\tcontract PagoRegistro {\\n    s...\n      PUSH 0\t\t\tcontract PagoRegistro {\\n    s...\n      CALLDATALOAD \t\t\tcontract PagoRegistro {\\n    s...\n      PUSH E0\t\t\tcontract PagoRegistro {\\n    s...\n      SHR \t\t\tcontract PagoRegistro {\\n    s...\n      DUP1 \t\t\tcontract PagoRegistro {\\n    s...\n      PUSH 185244A8\t\t\tcontract PagoRegistro {\\n    s...\n      EQ \t\t\tcontract PagoRegistro {\\n    s...\n      PUSH [tag] 3\t\t\tcontract PagoRegistro {\\n    s...\n      JUMPI \t\t\tcontract PagoRegistro {\\n    s...\n      DUP1 \t\t\tcontract PagoRegistro {\\n    s...\n      PUSH 3DEED02A\t\t\tcontract PagoRegistro {\\n    s...\n      EQ \t\t\tcontract PagoRegistro {\\n    s...\n      PUSH [tag] 4\t\t\tcontract PagoRegistro {\\n    s...\n      JUMPI \t\t\tcontract PagoRegistro {\\n    s...\n      DUP1 \t\t\tcontract PagoRegistro {\\n    s...\n      PUSH 72000C6E\t\t\tcontract PagoRegistro {\\n    s...\n      EQ \t\t\tcontract PagoRegistro {\\n    s...\n      PUSH [tag] 5\t\t\tcontract PagoRegistro {\\n    s...\n      JUMPI \t\t\tcontract PagoRegistro {\\n    s...\n      DUP1 \t\t\tcontract PagoRegistro {\\n    s...\n      PUSH DC28E72A\t\t\tcontract PagoRegistro {\\n    s...\n      EQ \t\t\tcontract PagoRegistro {\\n    s...\n      PUSH [tag] 6\t\t\tcontract PagoRegistro {\\n    s...\n      JUMPI \t\t\tcontract PagoRegistro {\\n    s...\n    tag 2\t\t\tcontract PagoRegistro {\\n    s...\n      JUMPDEST \t\t\tcontract PagoRegistro {\\n    s...\n      PUSH 0\t\t\tcontract PagoRegistro {\\n    s...\n      DUP1 \t\t\tcontract PagoRegistro {\\n    s...\n      REVERT \t\t\tcontract PagoRegistro {\\n    s...\n    tag 3\t\t\tfunction obtenerPagos() public...\n      JUMPDEST \t\t\tfunction obtenerPagos() public...\n      PUSH [tag] 7\t\t\tfunction obtenerPagos() public...\n      PUSH [tag] 8\t\t\tfunction obtenerPagos() public...\n      JUMP \t\t\tfunction obtenerPagos() public...\n    tag 7\t\t\tfunction obtenerPagos() public...\n      JUMPDEST \t\t\tfunction obtenerPagos() public...\n      PUSH 40\t\t\tfunction obtenerPagos() public...\n      MLOAD \t\t\tfunction obtenerPagos() public...\n      PUSH [tag] 9\t\t\tfunction obtenerPagos() public...\n      SWAP2 \t\t\tfunction obtenerPagos() public...\n      SWAP1 \t\t\tfunction obtenerPagos() public...\n      PUSH [tag] 10\t\t\tfunction obtenerPagos() public...\n      JUMP \t\t\tfunction obtenerPagos() public...\n    tag 9\t\t\tfunction obtenerPagos() public...\n      JUMPDEST \t\t\tfunction obtenerPagos() public...\n      PUSH 40\t\t\tfunction obtenerPagos() public...\n      MLOAD \t\t\tfunction obtenerPagos() public...\n      DUP1 \t\t\tfunction obtenerPagos() public...\n      SWAP2 \t\t\tfunction obtenerPagos() public...\n      SUB \t\t\tfunction obtenerPagos() public...\n      SWAP1 \t\t\tfunction obtenerPagos() public...\n      RETURN \t\t\tfunction obtenerPagos() public...\n    tag 4\t\t\tPago[] public pagos\n      JUMPDEST \t\t\tPago[] public pagos\n      PUSH [tag] 11\t\t\tPago[] public pagos\n      PUSH 4\t\t\tPago[] public pagos\n      DUP1 \t\t\tPago[] public pagos\n      CALLDATASIZE \t\t\tPago[] public pagos\n      SUB \t\t\tPago[] public pagos\n      DUP2 \t\t\tPago[] public pagos\n      ADD \t\t\tPago[] public pagos\n      SWAP1 \t\t\tPago[] public pagos\n      PUSH [tag] 12\t\t\tPago[] public pagos\n      SWAP2 \t\t\tPago[] public pagos\n      SWAP1 \t\t\tPago[] public pagos\n      PUSH [tag] 13\t\t\tPago[] public pagos\n      JUMP \t\t\tPago[] public pagos\n    tag 12\t\t\tPago[] public pagos\n      JUMPDEST \t\t\tPago[] public pagos\n      PUSH [tag] 14\t\t\tPago[] public pagos\n      JUMP \t\t\tPago[] public pagos\n    tag 11\t\t\tPago[] public pagos\n      JUMPDEST \t\t\tPago[] public pagos\n      PUSH 40\t\t\tPago[] public pagos\n      MLOAD \t\t\tPago[] public pagos\n      PUSH [tag] 15\t\t\tPago[] public pagos\n      SWAP5 \t\t\tPago[] public pagos\n      SWAP4 \t\t\tPago[] public pagos\n      SWAP3 \t\t\tPago[] public pagos\n      SWAP2 \t\t\tPago[] public pagos\n      SWAP1 \t\t\tPago[] public pagos\n      PUSH [tag] 16\t\t\tPago[] public pagos\n      JUMP \t\t\tPago[] public pagos\n    tag 15\t\t\tPago[] public pagos\n      JUMPDEST \t\t\tPago[] public pagos\n      PUSH 40\t\t\tPago[] public pagos\n      MLOAD \t\t\tPago[] public pagos\n      DUP1 \t\t\tPago[] public pagos\n      SWAP2 \t\t\tPago[] public pagos\n      SUB \t\t\tPago[] public pagos\n      SWAP1 \t\t\tPago[] public pagos\n      RETURN \t\t\tPago[] public pagos\n    tag 5\t\t\tfunction totalPagos() public v...\n      JUMPDEST \t\t\tfunction totalPagos() public v...\n      PUSH [tag] 17\t\t\tfunction totalPagos() public v...\n      PUSH [tag] 18\t\t\tfunction totalPagos() public v...\n      JUMP \t\t\tfunction totalPagos() public v...\n    tag 17\t\t\tfunction totalPagos() public v...\n      JUMPDEST \t\t\tfunction totalPagos() public v...\n      PUSH 40\t\t\tfunction totalPagos() public v...\n      MLOAD \t\t\tfunction totalPagos() public v...\n      PUSH [tag] 19\t\t\tfunction totalPagos() public v...\n      SWAP2 \t\t\tfunction totalPagos() public v...\n      SWAP1 \t\t\tfunction totalPagos() public v...\n      PUSH [tag] 20\t\t\tfunction totalPagos() public v...\n      JUMP \t\t\tfunction totalPagos() public v...\n    tag 19\t\t\tfunction totalPagos() public v...\n      JUMPDEST \t\t\tfunction totalPagos() public v...\n      PUSH 40\t\t\tfunction totalPagos() public v...\n      MLOAD \t\t\tfunction totalPagos() public v...\n      DUP1 \t\t\tfunction totalPagos() public v...\n      SWAP2 \t\t\tfunction totalPagos() public v...\n      SUB \t\t\tfunction totalPagos() public v...\n      SWAP1 \t\t\tfunction totalPagos() public v...\n      RETURN \t\t\tfunction totalPagos() public v...\n    tag 6\t\t\tfunction registrarPago(uint256...\n      JUMPDEST \t\t\tfunction registrarPago(uint256...\n      PUSH [tag] 21\t\t\tfunction registrarPago(uint256...\n      PUSH 4\t\t\tfunction registrarPago(uint256...\n      DUP1 \t\t\tfunction registrarPago(uint256...\n      CALLDATASIZE \t\t\tfunction registrarPago(uint256...\n      SUB \t\t\tfunction registrarPago(uint256...\n      DUP2 \t\t\tfunction registrarPago(uint256...\n      ADD \t\t\tfunction registrarPago(uint256...\n      SWAP1 \t\t\tfunction registrarPago(uint256...\n      PUSH [tag] 22\t\t\tfunction registrarPago(uint256...\n      SWAP2 \t\t\tfunction registrarPago(uint256...\n      SWAP1 \t\t\tfunction registrarPago(uint256...\n      PUSH [tag] 23\t\t\tfunction registrarPago(uint256...\n      JUMP \t\t\tfunction registrarPago(uint256...\n    tag 22\t\t\tfunction registrarPago(uint256...\n      JUMPDEST \t\t\tfunction registrarPago(uint256...\n      PUSH [tag] 24\t\t\tfunction registrarPago(uint256...\n      JUMP \t\t\tfunction registrarPago(uint256...\n    tag 21\t\t\tfunction registrarPago(uint256...\n      JUMPDEST \t\t\tfunction registrarPago(uint256...\n      STOP \t\t\tfunction registrarPago(uint256...\n    tag 8\t\t\tfunction obtenerPagos() public...\n      JUMPDEST \t\t\tfunction obtenerPagos() public...\n      PUSH 60\t\t\tPago[] memory\n      PUSH 0\t\t\tpagos\n      DUP1 \t\t\treturn pagos\n      SLOAD \t\t\treturn pagos\n      DUP1 \t\t\treturn pagos\n      PUSH 20\t\t\treturn pagos\n      MUL \t\t\treturn pagos\n      PUSH 20\t\t\treturn pagos\n      ADD \t\t\treturn pagos\n      PUSH 40\t\t\treturn pagos\n      MLOAD \t\t\treturn pagos\n      SWAP1 \t\t\treturn pagos\n      DUP2 \t\t\treturn pagos\n      ADD \t\t\treturn pagos\n      PUSH 40\t\t\treturn pagos\n      MSTORE \t\t\treturn pagos\n      DUP1 \t\t\treturn pagos\n      SWAP3 \t\t\treturn pagos\n      SWAP2 \t\t\treturn pagos\n      SWAP1 \t\t\treturn pagos\n      DUP2 \t\t\treturn pagos\n      DUP2 \t\t\treturn pagos\n      MSTORE \t\t\treturn pagos\n      PUSH 20\t\t\treturn pagos\n      ADD \t\t\treturn pagos\n      PUSH 0\t\t\treturn pagos\n      SWAP1 \t\t\treturn pagos\n    tag 26\t\t\treturn pagos\n      JUMPDEST \t\t\treturn pagos\n      DUP3 \t\t\treturn pagos\n      DUP3 \t\t\treturn pagos\n      LT \t\t\treturn pagos\n      ISZERO \t\t\treturn pagos\n      PUSH [tag] 27\t\t\treturn pagos\n      JUMPI \t\t\treturn pagos\n      DUP4 \t\t\treturn pagos\n      DUP3 \t\t\treturn pagos\n      SWAP1 \t\t\treturn pagos\n      PUSH 0\t\t\treturn pagos\n      MSTORE \t\t\treturn pagos\n      PUSH 20\t\t\treturn pagos\n      PUSH 0\t\t\treturn pagos\n      KECCAK256 \t\t\treturn pagos\n      SWAP1 \t\t\treturn pagos\n      PUSH 4\t\t\treturn pagos\n      MUL \t\t\treturn pagos\n      ADD \t\t\treturn pagos\n      PUSH 40\t\t\treturn pagos\n      MLOAD \t\t\treturn pagos\n      DUP1 \t\t\treturn pagos\n      PUSH 80\t\t\treturn pagos\n      ADD \t\t\treturn pagos\n      PUSH 40\t\t\treturn pagos\n      MSTORE \t\t\treturn pagos\n      SWAP1 \t\t\treturn pagos\n      DUP2 \t\t\treturn pagos\n      PUSH 0\t\t\treturn pagos\n      DUP3 \t\t\treturn pagos\n      ADD \t\t\treturn pagos\n      SLOAD \t\t\treturn pagos\n      DUP2 \t\t\treturn pagos\n      MSTORE \t\t\treturn pagos\n      PUSH 20\t\t\treturn pagos\n      ADD \t\t\treturn pagos\n      PUSH 1\t\t\treturn pagos\n      DUP3 \t\t\treturn pagos\n      ADD \t\t\treturn pagos\n      DUP1 \t\t\treturn pagos\n      SLOAD \t\t\treturn pagos\n      PUSH [tag] 29\t\t\treturn pagos\n      SWAP1 \t\t\treturn pagos\n      PUSH [tag] 30\t\t\treturn pagos\n      JUMP \t\t\treturn pagos\n    tag 29\t\t\treturn pagos\n      JUMPDEST \t\t\treturn pagos\n      DUP1 \t\t\treturn pagos\n      PUSH 1F\t\t\treturn pagos\n      ADD \t\t\treturn pagos\n      PUSH 20\t\t\treturn pagos\n      DUP1 \t\t\treturn pagos\n      SWAP2 \t\t\treturn pagos\n      DIV \t\t\treturn pagos\n      MUL \t\t\treturn pagos\n      PUSH 20\t\t\treturn pagos\n      ADD \t\t\treturn pagos\n      PUSH 40\t\t\treturn pagos\n      MLOAD \t\t\treturn pagos\n      SWAP1 \t\t\treturn pagos\n      DUP2 \t\t\treturn pagos\n      ADD \t\t\treturn pagos\n      PUSH 40\t\t\treturn pagos\n      MSTORE \t\t\treturn pagos\n      DUP1 \t\t\treturn pagos\n      SWAP3 \t\t\treturn pagos\n      SWAP2 \t\t\treturn pagos\n      SWAP1 \t\t\treturn pagos\n      DUP2 \t\t\treturn pagos\n      DUP2 \t\t\treturn pagos\n      MSTORE \t\t\treturn pagos\n      PUSH 20\t\t\treturn pagos\n      ADD \t\t\treturn pagos\n      DUP3 \t\t\treturn pagos\n      DUP1 \t\t\treturn pagos\n      SLOAD \t\t\treturn pagos\n      PUSH [tag] 31\t\t\treturn pagos\n      SWAP1 \t\t\treturn pagos\n      PUSH [tag] 30\t\t\treturn pagos\n      JUMP \t\t\treturn pagos\n    tag 31\t\t\treturn pagos\n      JUMPDEST \t\t\treturn pagos\n      DUP1 \t\t\treturn pagos\n      ISZERO \t\t\treturn pagos\n      PUSH [tag] 32\t\t\treturn pagos\n      JUMPI \t\t\treturn pagos\n      DUP1 \t\t\treturn pagos\n      PUSH 1F\t\t\treturn pagos\n      LT \t\t\treturn pagos\n      PUSH [tag] 33\t\t\treturn pagos\n      JUMPI \t\t\treturn pagos\n      PUSH 100\t\t\treturn pagos\n      DUP1 \t\t\treturn pagos\n      DUP4 \t\t\treturn pagos\n      SLOAD \t\t\treturn pagos\n      DIV \t\t\treturn pagos\n      MUL \t\t\treturn pagos\n      DUP4 \t\t\treturn pagos\n      MSTORE \t\t\treturn pagos\n      SWAP2 \t\t\treturn pagos\n      PUSH 20\t\t\treturn pagos\n      ADD \t\t\treturn pagos\n      SWAP2 \t\t\treturn pagos\n      PUSH [tag] 32\t\t\treturn pagos\n      JUMP \t\t\treturn pagos\n    tag 33\t\t\treturn pagos\n      JUMPDEST \t\t\treturn pagos\n      DUP3 \t\t\treturn pagos\n      ADD \t\t\treturn pagos\n      SWAP2 \t\t\treturn pagos\n      SWAP1 \t\t\treturn pagos\n      PUSH 0\t\t\treturn pagos\n      MSTORE \t\t\treturn pagos\n      PUSH 20\t\t\treturn pagos\n      PUSH 0\t\t\treturn pagos\n      KECCAK256 \t\t\treturn pagos\n      SWAP1 \t\t\treturn pagos\n    tag 34\t\t\treturn pagos\n      JUMPDEST \t\t\treturn pagos\n      DUP2 \t\t\treturn pagos\n      SLOAD \t\t\treturn pagos\n      DUP2 \t\t\treturn pagos\n      MSTORE \t\t\treturn pagos\n      SWAP1 \t\t\treturn pagos\n      PUSH 1\t\t\treturn pagos\n      ADD \t\t\treturn pagos\n      SWAP1 \t\t\treturn pagos\n      PUSH 20\t\t\treturn pagos\n      ADD \t\t\treturn pagos\n      DUP1 \t\t\treturn pagos\n      DUP4 \t\t\treturn pagos\n      GT \t\t\treturn pagos\n      PUSH [tag] 34\t\t\treturn pagos\n      JUMPI \t\t\treturn pagos\n      DUP3 \t\t\treturn pagos\n      SWAP1 \t\t\treturn pagos\n      SUB \t\t\treturn pagos\n      PUSH 1F\t\t\treturn pagos\n      AND \t\t\treturn pagos\n      DUP3 \t\t\treturn pagos\n      ADD \t\t\treturn pagos\n      SWAP2 \t\t\treturn pagos\n    tag 32\t\t\treturn pagos\n      JUMPDEST \t\t\treturn pagos\n      POP \t\t\treturn pagos\n      POP \t\t\treturn pagos\n      POP \t\t\treturn pagos\n      POP \t\t\treturn pagos\n      POP \t\t\treturn pagos\n      DUP2 \t\t\treturn pagos\n      MSTORE \t\t\treturn pagos\n      PUSH 20\t\t\treturn pagos\n      ADD \t\t\treturn pagos\n      PUSH 2\t\t\treturn pagos\n      DUP3 \t\t\treturn pagos\n      ADD \t\t\treturn pagos\n      SLOAD \t\t\treturn pagos\n      DUP2 \t\t\treturn pagos\n      MSTORE \t\t\treturn pagos\n      PUSH 20\t\t\treturn pagos\n      ADD \t\t\treturn pagos\n      PUSH 3\t\t\treturn pagos\n      DUP3 \t\t\treturn pagos\n      ADD \t\t\treturn pagos\n      SLOAD \t\t\treturn pagos\n      DUP2 \t\t\treturn pagos\n      MSTORE \t\t\treturn pagos\n      POP \t\t\treturn pagos\n      POP \t\t\treturn pagos\n      DUP2 \t\t\treturn pagos\n      MSTORE \t\t\treturn pagos\n      PUSH 20\t\t\treturn pagos\n      ADD \t\t\treturn pagos\n      SWAP1 \t\t\treturn pagos\n      PUSH 1\t\t\treturn pagos\n      ADD \t\t\treturn pagos\n      SWAP1 \t\t\treturn pagos\n      PUSH [tag] 26\t\t\treturn pagos\n      JUMP \t\t\treturn pagos\n    tag 27\t\t\treturn pagos\n      JUMPDEST \t\t\treturn pagos\n      POP \t\t\treturn pagos\n      POP \t\t\treturn pagos\n      POP \t\t\treturn pagos\n      POP \t\t\treturn pagos\n      SWAP1 \t\t\treturn pagos\n      POP \t\t\treturn pagos\n      SWAP1 \t\t\tfunction obtenerPagos() public...\n      JUMP \t\t\tfunction obtenerPagos() public...\n    tag 14\t\t\tPago[] public pagos\n      JUMPDEST \t\t\tPago[] public pagos\n      PUSH 0\t\t\tPago[] public pagos\n      DUP2 \t\t\tPago[] public pagos\n      DUP2 \t\t\tPago[] public pagos\n      SLOAD \t\t\tPago[] public pagos\n      DUP2 \t\t\tPago[] public pagos\n      LT \t\t\tPago[] public pagos\n      PUSH [tag] 35\t\t\tPago[] public pagos\n      JUMPI \t\t\tPago[] public pagos\n      PUSH 0\t\t\tPago[] public pagos\n      DUP1 \t\t\tPago[] public pagos\n      REVERT \t\t\tPago[] public pagos\n    tag 35\t\t\tPago[] public pagos\n      JUMPDEST \t\t\tPago[] public pagos\n      SWAP1 \t\t\tPago[] public pagos\n      PUSH 0\t\t\tPago[] public pagos\n      MSTORE \t\t\tPago[] public pagos\n      PUSH 20\t\t\tPago[] public pagos\n      PUSH 0\t\t\tPago[] public pagos\n      KECCAK256 \t\t\tPago[] public pagos\n      SWAP1 \t\t\tPago[] public pagos\n      PUSH 4\t\t\tPago[] public pagos\n      MUL \t\t\tPago[] public pagos\n      ADD \t\t\tPago[] public pagos\n      PUSH 0\t\t\tPago[] public pagos\n      SWAP2 \t\t\tPago[] public pagos\n      POP \t\t\tPago[] public pagos\n      SWAP1 \t\t\tPago[] public pagos\n      POP \t\t\tPago[] public pagos\n      DUP1 \t\t\tPago[] public pagos\n      PUSH 0\t\t\tPago[] public pagos\n      ADD \t\t\tPago[] public pagos\n      SLOAD \t\t\tPago[] public pagos\n      SWAP1 \t\t\tPago[] public pagos\n      DUP1 \t\t\tPago[] public pagos\n      PUSH 1\t\t\tPago[] public pagos\n      ADD \t\t\tPago[] public pagos\n      DUP1 \t\t\tPago[] public pagos\n      SLOAD \t\t\tPago[] public pagos\n      PUSH [tag] 37\t\t\tPago[] public pagos\n      SWAP1 \t\t\tPago[] public pagos\n      PUSH [tag] 30\t\t\tPago[] public pagos\n      JUMP \t\t\tPago[] public pagos\n    tag 37\t\t\tPago[] public pagos\n      JUMPDEST \t\t\tPago[] public pagos\n      DUP1 \t\t\tPago[] public pagos\n      PUSH 1F\t\t\tPago[] public pagos\n      ADD \t\t\tPago[] public pagos\n      PUSH 20\t\t\tPago[] public pagos\n      DUP1 \t\t\tPago[] public pagos\n      SWAP2 \t\t\tPago[] public pagos\n      DIV \t\t\tPago[] public pagos\n      MUL \t\t\tPago[] public pagos\n      PUSH 20\t\t\tPago[] public pagos\n      ADD \t\t\tPago[] public pagos\n      PUSH 40\t\t\tPago[] public pagos\n      MLOAD \t\t\tPago[] public pagos\n      SWAP1 \t\t\tPago[] public pagos\n      DUP2 \t\t\tPago[] public pagos\n      ADD \t\t\tPago[] public pagos\n      PUSH 40\t\t\tPago[] public pagos\n      MSTORE \t\t\tPago[] public pagos\n      DUP1 \t\t\tPago[] public pagos\n      SWAP3 \t\t\tPago[] public pagos\n      SWAP2 \t\t\tPago[] public pagos\n      SWAP1 \t\t\tPago[] public pagos\n      DUP2 \t\t\tPago[] public pagos\n      DUP2 \t\t\tPago[] public pagos\n      MSTORE \t\t\tPago[] public pagos\n      PUSH 20\t\t\tPago[] public pagos\n      ADD \t\t\tPago[] public pagos\n      DUP3 \t\t\tPago[] public pagos\n      DUP1 \t\t\tPago[] public pagos\n      SLOAD \t\t\tPago[] public pagos\n      PUSH [tag] 38\t\t\tPago[] public pagos\n      SWAP1 \t\t\tPago[] public pagos\n      PUSH [tag] 30\t\t\tPago[] public pagos\n      JUMP \t\t\tPago[] public pagos\n    tag 38\t\t\tPago[] public pagos\n      JUMPDEST \t\t\tPago[] public pagos\n      DUP1 \t\t\tPago[] public pagos\n      ISZERO \t\t\tPago[] public pagos\n      PUSH [tag] 39\t\t\tPago[] public pagos\n      JUMPI \t\t\tPago[] public pagos\n      DUP1 \t\t\tPago[] public pagos\n      PUSH 1F\t\t\tPago[] public pagos\n      LT \t\t\tPago[] public pagos\n      PUSH [tag] 40\t\t\tPago[] public pagos\n      JUMPI \t\t\tPago[] public pagos\n      PUSH 100\t\t\tPago[] public pagos\n      DUP1 \t\t\tPago[] public pagos\n      DUP4 \t\t\tPago[] public pagos\n      SLOAD \t\t\tPago[] public pagos\n      DIV \t\t\tPago[] public pagos\n      MUL \t\t\tPago[] public pagos\n      DUP4 \t\t\tPago[] public pagos\n      MSTORE \t\t\tPago[] public pagos\n      SWAP2 \t\t\tPago[] public pagos\n      PUSH 20\t\t\tPago[] public pagos\n      ADD \t\t\tPago[] public pagos\n      SWAP2 \t\t\tPago[] public pagos\n      PUSH [tag] 39\t\t\tPago[] public pagos\n      JUMP \t\t\tPago[] public pagos\n    tag 40\t\t\tPago[] public pagos\n      JUMPDEST \t\t\tPago[] public pagos\n      DUP3 \t\t\tPago[] public pagos\n      ADD \t\t\tPago[] public pagos\n      SWAP2 \t\t\tPago[] public pagos\n      SWAP1 \t\t\tPago[] public pagos\n      PUSH 0\t\t\tPago[] public pagos\n      MSTORE \t\t\tPago[] public pagos\n      PUSH 20\t\t\tPago[] public pagos\n      PUSH 0\t\t\tPago[] public pagos\n      KECCAK256 \t\t\tPago[] public pagos\n      SWAP1 \t\t\tPago[] public pagos\n    tag 41\t\t\tPago[] public pagos\n      JUMPDEST \t\t\tPago[] public pagos\n      DUP2 \t\t\tPago[] public pagos\n      SLOAD \t\t\tPago[] public pagos\n      DUP2 \t\t\tPago[] public pagos\n      MSTORE \t\t\tPago[] public pagos\n      SWAP1 \t\t\tPago[] public pagos\n      PUSH 1\t\t\tPago[] public pagos\n      ADD \t\t\tPago[] public pagos\n      SWAP1 \t\t\tPago[] public pagos\n      PUSH 20\t\t\tPago[] public pagos\n      ADD \t\t\tPago[] public pagos\n      DUP1 \t\t\tPago[] public pagos\n      DUP4 \t\t\tPago[] public pagos\n      GT \t\t\tPago[] public pagos\n      PUSH [tag] 41\t\t\tPago[] public pagos\n      JUMPI \t\t\tPago[] public pagos\n      DUP3 \t\t\tPago[] public pagos\n      SWAP1 \t\t\tPago[] public pagos\n      SUB \t\t\tPago[] public pagos\n      PUSH 1F\t\t\tPago[] public pagos\n      AND \t\t\tPago[] public pagos\n      DUP3 \t\t\tPago[] public pagos\n      ADD \t\t\tPago[] public pagos\n      SWAP2 \t\t\tPago[] public pagos\n    tag 39\t\t\tPago[] public pagos\n      JUMPDEST \t\t\tPago[] public pagos\n      POP \t\t\tPago[] public pagos\n      POP \t\t\tPago[] public pagos\n      POP \t\t\tPago[] public pagos\n      POP \t\t\tPago[] public pagos\n      POP \t\t\tPago[] public pagos\n      SWAP1 \t\t\tPago[] public pagos\n      DUP1 \t\t\tPago[] public pagos\n      PUSH 2\t\t\tPago[] public pagos\n      ADD \t\t\tPago[] public pagos\n      SLOAD \t\t\tPago[] public pagos\n      SWAP1 \t\t\tPago[] public pagos\n      DUP1 \t\t\tPago[] public pagos\n      PUSH 3\t\t\tPago[] public pagos\n      ADD \t\t\tPago[] public pagos\n      SLOAD \t\t\tPago[] public pagos\n      SWAP1 \t\t\tPago[] public pagos\n      POP \t\t\tPago[] public pagos\n      DUP5 \t\t\tPago[] public pagos\n      JUMP \t\t\tPago[] public pagos\n    tag 18\t\t\tfunction totalPagos() public v...\n      JUMPDEST \t\t\tfunction totalPagos() public v...\n      PUSH 0\t\t\tuint256\n      DUP1 \t\t\tpagos\n      DUP1 \t\t\tpagos.length\n      SLOAD \t\t\tpagos.length\n      SWAP1 \t\t\tpagos.length\n      POP \t\t\tpagos.length\n      SWAP1 \t\t\treturn pagos.length\n      POP \t\t\treturn pagos.length\n      SWAP1 \t\t\tfunction totalPagos() public v...\n      JUMP \t\t\tfunction totalPagos() public v...\n    tag 24\t\t\tfunction registrarPago(uint256...\n      JUMPDEST \t\t\tfunction registrarPago(uint256...\n      PUSH 0\t\t\tpagos\n      PUSH 40\t\t\tPago(_orderId, _payer, _amount...\n      MLOAD \t\t\tPago(_orderId, _payer, _amount...\n      DUP1 \t\t\tPago(_orderId, _payer, _amount...\n      PUSH 80\t\t\tPago(_orderId, _payer, _amount...\n      ADD \t\t\tPago(_orderId, _payer, _amount...\n      PUSH 40\t\t\tPago(_orderId, _payer, _amount...\n      MSTORE \t\t\tPago(_orderId, _payer, _amount...\n      DUP1 \t\t\tPago(_orderId, _payer, _amount...\n      DUP6 \t\t\t_orderId\n      DUP2 \t\t\tPago(_orderId, _payer, _amount...\n      MSTORE \t\t\tPago(_orderId, _payer, _amount...\n      PUSH 20\t\t\tPago(_orderId, _payer, _amount...\n      ADD \t\t\tPago(_orderId, _payer, _amount...\n      DUP5 \t\t\t_payer\n      DUP2 \t\t\tPago(_orderId, _payer, _amount...\n      MSTORE \t\t\tPago(_orderId, _payer, _amount...\n      PUSH 20\t\t\tPago(_orderId, _payer, _amount...\n      ADD \t\t\tPago(_orderId, _payer, _amount...\n      DUP4 \t\t\t_amount\n      DUP2 \t\t\tPago(_orderId, _payer, _amount...\n      MSTORE \t\t\tPago(_orderId, _payer, _amount...\n      PUSH 20\t\t\tPago(_orderId, _payer, _amount...\n      ADD \t\t\tPago(_orderId, _payer, _amount...\n      TIMESTAMP \t\t\tblock.timestamp\n      DUP2 \t\t\tPago(_orderId, _payer, _amount...\n      MSTORE \t\t\tPago(_orderId, _payer, _amount...\n      POP \t\t\tPago(_orderId, _payer, _amount...\n      SWAP1 \t\t\tpagos.push(Pago(_orderId, _pay...\n      DUP1 \t\t\tpagos.push(Pago(_orderId, _pay...\n      PUSH 1\t\t\tpagos.push(Pago(_orderId, _pay...\n      DUP2 \t\t\tpagos.push(Pago(_orderId, _pay...\n      SLOAD \t\t\tpagos.push(Pago(_orderId, _pay...\n      ADD \t\t\tpagos.push(Pago(_orderId, _pay...\n      DUP1 \t\t\tpagos.push(Pago(_orderId, _pay...\n      DUP3 \t\t\tpagos.push(Pago(_orderId, _pay...\n      SSTORE \t\t\tpagos.push(Pago(_orderId, _pay...\n      DUP1 \t\t\tpagos.push(Pago(_orderId, _pay...\n      SWAP2 \t\t\tpagos.push(Pago(_orderId, _pay...\n      POP \t\t\tpagos.push(Pago(_orderId, _pay...\n      POP \t\t\tpagos.push(Pago(_orderId, _pay...\n      PUSH 1\t\t\tpagos.push(Pago(_orderId, _pay...\n      SWAP1 \t\t\tpagos.push(Pago(_orderId, _pay...\n      SUB \t\t\tpagos.push(Pago(_orderId, _pay...\n      SWAP1 \t\t\tpagos.push(Pago(_orderId, _pay...\n      PUSH 0\t\t\tpagos.push(Pago(_orderId, _pay...\n      MSTORE \t\t\tpagos.push(Pago(_orderId, _pay...\n      PUSH 20\t\t\tpagos.push(Pago(_orderId, _pay...\n      PUSH 0\t\t\tpagos.push(Pago(_orderId, _pay...\n      KECCAK256 \t\t\tpagos.push(Pago(_orderId, _pay...\n      SWAP1 \t\t\tpagos.push(Pago(_orderId, _pay...\n      PUSH 4\t\t\tpagos.push(Pago(_orderId, _pay...\n      MUL \t\t\tpagos.push(Pago(_orderId, _pay...\n      ADD \t\t\tpagos.push(Pago(_orderId, _pay...\n      PUSH 0\t\t\tpagos.push(Pago(_orderId, _pay...\n      SWAP1 \t\t\tpagos.push(Pago(_orderId, _pay...\n      SWAP2 \t\t\tpagos.push(Pago(_orderId, _pay...\n      SWAP1 \t\t\tpagos.push(Pago(_orderId, _pay...\n      SWAP2 \t\t\tpagos.push(Pago(_orderId, _pay...\n      SWAP1 \t\t\tpagos.push(Pago(_orderId, _pay...\n      SWAP2 \t\t\tpagos.push(Pago(_orderId, _pay...\n      POP \t\t\tpagos.push(Pago(_orderId, _pay...\n      PUSH 0\t\t\tpagos.push(Pago(_orderId, _pay...\n      DUP3 \t\t\tpagos.push(Pago(_orderId, _pay...\n      ADD \t\t\tpagos.push(Pago(_orderId, _pay...\n      MLOAD \t\t\tpagos.push(Pago(_orderId, _pay...\n      DUP2 \t\t\tpagos.push(Pago(_orderId, _pay...\n      PUSH 0\t\t\tpagos.push(Pago(_orderId, _pay...\n      ADD \t\t\tpagos.push(Pago(_orderId, _pay...\n      SSTORE \t\t\tpagos.push(Pago(_orderId, _pay...\n      PUSH 20\t\t\tpagos.push(Pago(_orderId, _pay...\n      DUP3 \t\t\tpagos.push(Pago(_orderId, _pay...\n      ADD \t\t\tpagos.push(Pago(_orderId, _pay...\n      MLOAD \t\t\tpagos.push(Pago(_orderId, _pay...\n      DUP2 \t\t\tpagos.push(Pago(_orderId, _pay...\n      PUSH 1\t\t\tpagos.push(Pago(_orderId, _pay...\n      ADD \t\t\tpagos.push(Pago(_orderId, _pay...\n      SWAP1 \t\t\tpagos.push(Pago(_orderId, _pay...\n      DUP2 \t\t\tpagos.push(Pago(_orderId, _pay...\n      PUSH [tag] 45\t\t\tpagos.push(Pago(_orderId, _pay...\n      SWAP2 \t\t\tpagos.push(Pago(_orderId, _pay...\n      SWAP1 \t\t\tpagos.push(Pago(_orderId, _pay...\n      PUSH [tag] 46\t\t\tpagos.push(Pago(_orderId, _pay...\n      JUMP \t\t\tpagos.push(Pago(_orderId, _pay...\n    tag 45\t\t\tpagos.push(Pago(_orderId, _pay...\n      JUMPDEST \t\t\tpagos.push(Pago(_orderId, _pay...\n      POP \t\t\tpagos.push(Pago(_orderId, _pay...\n      PUSH 40\t\t\tpagos.push(Pago(_orderId, _pay...\n      DUP3 \t\t\tpagos.push(Pago(_orderId, _pay...\n      ADD \t\t\tpagos.push(Pago(_orderId, _pay...\n      MLOAD \t\t\tpagos.push(Pago(_orderId, _pay...\n      DUP2 \t\t\tpagos.push(Pago(_orderId, _pay...\n      PUSH 2\t\t\tpagos.push(Pago(_orderId, _pay...\n      ADD \t\t\tpagos.push(Pago(_orderId, _pay...\n      SSTORE \t\t\tpagos.push(Pago(_orderId, _pay...\n      PUSH 60\t\t\tpagos.push(Pago(_orderId, _pay...\n      DUP3 \t\t\tpagos.push(Pago(_orderId, _pay...\n      ADD \t\t\tpagos.push(Pago(_orderId, _pay...\n      MLOAD \t\t\tpagos.push(Pago(_orderId, _pay...\n      DUP2 \t\t\tpagos.push(Pago(_orderId, _pay...\n      PUSH 3\t\t\tpagos.push(Pago(_orderId, _pay...\n      ADD \t\t\tpagos.push(Pago(_orderId, _pay...\n      SSTORE \t\t\tpagos.push(Pago(_orderId, _pay...\n      POP \t\t\tpagos.push(Pago(_orderId, _pay...\n      POP \t\t\tpagos.push(Pago(_orderId, _pay...\n      PUSH D6A0AE9B78A634487F4FC9CEE391ED7FD8CAFF4282ABBA6BBA220EBD33CE6980\t\t\tPagoRegistrado(_orderId, _paye...\n      DUP4 \t\t\t_orderId\n      DUP4 \t\t\t_payer\n      DUP4 \t\t\t_amount\n      TIMESTAMP \t\t\tblock.timestamp\n      PUSH 40\t\t\tPagoRegistrado(_orderId, _paye...\n      MLOAD \t\t\tPagoRegistrado(_orderId, _paye...\n      PUSH [tag] 47\t\t\tPagoRegistrado(_orderId, _paye...\n      SWAP5 \t\t\tPagoRegistrado(_orderId, _paye...\n      SWAP4 \t\t\tPagoRegistrado(_orderId, _paye...\n      SWAP3 \t\t\tPagoRegistrado(_orderId, _paye...\n      SWAP2 \t\t\tPagoRegistrado(_orderId, _paye...\n      SWAP1 \t\t\tPagoRegistrado(_orderId, _paye...\n      PUSH [tag] 16\t\t\tPagoRegistrado(_orderId, _paye...\n      JUMP \t\t\tPagoRegistrado(_orderId, _paye...\n    tag 47\t\t\tPagoRegistrado(_orderId, _paye...\n      JUMPDEST \t\t\tPagoRegistrado(_orderId, _paye...\n      PUSH 40\t\t\tPagoRegistrado(_orderId, _paye...\n      MLOAD \t\t\tPagoRegistrado(_orderId, _paye...\n      DUP1 \t\t\tPagoRegistrado(_orderId, _paye...\n      SWAP2 \t\t\tPagoRegistrado(_orderId, _paye...\n      SUB \t\t\tPagoRegistrado(_orderId, _paye...\n      SWAP1 \t\t\tPagoRegistrado(_orderId, _paye...\n      LOG1 \t\t\tPagoRegistrado(_orderId, _paye...\n      POP \t\t\tfunction registrarPago(uint256...\n      POP \t\t\tfunction registrarPago(uint256...\n      POP \t\t\tfunction registrarPago(uint256...\n      JUMP \t\t\tfunction registrarPago(uint256...\n    tag 48\t\t\t-License-Identifier: MIT\\nprag...\n      JUMPDEST \t\t\t-License-Identifier: MIT\\nprag...\n      PUSH 0\t\t\tgo {\\n \n      DUP2 \t\t\t    s\n      MLOAD \t\t\t;\\n        st\n      SWAP1 \t\t\t56 orderId;\\n        st\n      POP \t\t\t56 orderId;\\n        st\n      SWAP2 \t\t\t-License-Identifier: MIT\\nprag...\n      SWAP1 \t\t\t-License-Identifier: MIT\\nprag...\n      POP \t\t\t-License-Identifier: MIT\\nprag...\n      JUMP \t\t\t-License-Identifier: MIT\\nprag...\n    tag 49\t\t\t       uint256 amount;\\n      ...\n      JUMPDEST \t\t\t       uint256 amount;\\n      ...\n      PUSH 0\t\t\terId, strin\n      DUP3 \t\t\t, uint\n      DUP3 \t\t\tmou\n      MSTORE \t\t\tnt256 amount, uint2\n      PUSH 20\t\t\tstra\n      DUP3 \t\t\t re\n      ADD \t\t\ttion registrar\n      SWAP1 \t\t\tamp);\\n\\n    function registra...\n      POP \t\t\tamp);\\n\\n    function registra...\n      SWAP3 \t\t\t       uint256 amount;\\n      ...\n      SWAP2 \t\t\t       uint256 amount;\\n      ...\n      POP \t\t\t       uint256 amount;\\n      ...\n      POP \t\t\t       uint256 amount;\\n      ...\n      JUMP \t\t\t       uint256 amount;\\n      ...\n    tag 50\t\t\t _orderId, string memory _paye...\n      JUMPDEST \t\t\t _orderId, string memory _paye...\n      PUSH 0\t\t\terId\n      DUP2 \t\t\tblo\n      SWAP1 \t\t\tamount, blo\n      POP \t\t\tamount, blo\n      PUSH 20\t\t\tt Pa\n      DUP3 \t\t\t  e\n      ADD \t\t\t      emit Pag\n      SWAP1 \t\t\tmp));\\n        emit Pag\n      POP \t\t\tmp));\\n        emit Pag\n      SWAP2 \t\t\t _orderId, string memory _paye...\n      SWAP1 \t\t\t _orderId, string memory _paye...\n      POP \t\t\t _orderId, string memory _paye...\n      JUMP \t\t\t _orderId, string memory _paye...\n    tag 51\t\t\torderId, _payer, _amount, bloc...\n      JUMPDEST \t\t\torderId, _payer, _amount, bloc...\n      PUSH 0\t\t\ttamp);\\n\n      DUP2 \t\t\ttener\n      SWAP1 \t\t\tfunction obtener\n      POP \t\t\tfunction obtener\n      SWAP2 \t\t\torderId, _payer, _amount, bloc...\n      SWAP1 \t\t\torderId, _payer, _amount, bloc...\n      POP \t\t\torderId, _payer, _amount, bloc...\n      JUMP \t\t\torderId, _payer, _amount, bloc...\n    tag 52\t\t\tic view returns (Pago[] memory...\n      JUMPDEST \t\t\tic view returns (Pago[] memory...\n      PUSH [tag] 101\t\t\totalPagos() public view \n      DUP2 \t\t\t view\n      PUSH [tag] 51\t\t\totalPagos() public view \n      JUMP \t\t\totalPagos() public view \n    tag 101\t\t\totalPagos() public view \n      JUMPDEST \t\t\totalPagos() public view \n      DUP3 \t\t\tion\n      MSTORE \t\t\t  function totalPagos() public...\n      POP \t\t\tic view returns (Pago[] memory...\n      POP \t\t\tic view returns (Pago[] memory...\n      JUMP \t\t\tic view returns (Pago[] memory...\n    tag 53\t\t\t256) {\\n        return pagos.l...\n      JUMPDEST \t\t\t256) {\\n        return pagos.l...\n      PUSH 0\t\t\t\n      DUP2 \t\t\t\n      MLOAD \t\t\t\n      SWAP1 \t\t\t\n      POP \t\t\t\n      SWAP2 \t\t\t256) {\\n        return pagos.l...\n      SWAP1 \t\t\t256) {\\n        return pagos.l...\n      POP \t\t\t256) {\\n        return pagos.l...\n      JUMP \t\t\t256) {\\n        return pagos.l...\n    tag 54\t\t\t\n      JUMPDEST \t\t\t\n      PUSH 0\t\t\t\n      DUP3 \t\t\t\n      DUP3 \t\t\t\n      MSTORE \t\t\t\n      PUSH 20\t\t\t\n      DUP3 \t\t\t\n      ADD \t\t\t\n      SWAP1 \t\t\t\n      POP \t\t\t\n      SWAP3 \t\t\t\n      SWAP2 \t\t\t\n      POP \t\t\t\n      POP \t\t\t\n      JUMP \t\t\t\n    tag 55\t\t\t\n      JUMPDEST \t\t\t\n      DUP3 \t\t\t\n      DUP2 \t\t\t\n      DUP4 \t\t\t\n      MCOPY \t\t\t\n      PUSH 0\t\t\t\n      DUP4 \t\t\t\n      DUP4 \t\t\t\n      ADD \t\t\t\n      MSTORE \t\t\t\n      POP \t\t\t\n      POP \t\t\t\n      POP \t\t\t\n      JUMP \t\t\t\n    tag 56\t\t\t\n      JUMPDEST \t\t\t\n      PUSH 0\t\t\t\n      PUSH 1F\t\t\t\n      NOT \t\t\t\n      PUSH 1F\t\t\t\n      DUP4 \t\t\t\n      ADD \t\t\t\n      AND \t\t\t\n      SWAP1 \t\t\t\n      POP \t\t\t\n      SWAP2 \t\t\t\n      SWAP1 \t\t\t\n      POP \t\t\t\n      JUMP \t\t\t\n    tag 57\t\t\t\n      JUMPDEST \t\t\t\n      PUSH 0\t\t\t\n      PUSH [tag] 107\t\t\t\n      DUP3 \t\t\t\n      PUSH [tag] 53\t\t\t\n      JUMP \t\t\t\n    tag 107\t\t\t\n      JUMPDEST \t\t\t\n      PUSH [tag] 108\t\t\t\n      DUP2 \t\t\t\n      DUP6 \t\t\t\n      PUSH [tag] 54\t\t\t\n      JUMP \t\t\t\n    tag 108\t\t\t\n      JUMPDEST \t\t\t\n      SWAP4 \t\t\t\n      POP \t\t\t\n      PUSH [tag] 109\t\t\t\n      DUP2 \t\t\t\n      DUP6 \t\t\t\n      PUSH 20\t\t\t\n      DUP7 \t\t\t\n      ADD \t\t\t\n      PUSH [tag] 55\t\t\t\n      JUMP \t\t\t\n    tag 109\t\t\t\n      JUMPDEST \t\t\t\n      PUSH [tag] 110\t\t\t\n      DUP2 \t\t\t\n      PUSH [tag] 56\t\t\t\n      JUMP \t\t\t\n    tag 110\t\t\t\n      JUMPDEST \t\t\t\n      DUP5 \t\t\t\n      ADD \t\t\t\n      SWAP2 \t\t\t\n      POP \t\t\t\n      POP \t\t\t\n      SWAP3 \t\t\t\n      SWAP2 \t\t\t\n      POP \t\t\t\n      POP \t\t\t\n      JUMP \t\t\t\n    tag 58\t\t\t\n      JUMPDEST \t\t\t\n      PUSH 0\t\t\t\n      PUSH 80\t\t\t\n      DUP4 \t\t\t\n      ADD \t\t\t\n      PUSH 0\t\t\t\n      DUP4 \t\t\t\n      ADD \t\t\t\n      MLOAD \t\t\t\n      PUSH [tag] 112\t\t\t\n      PUSH 0\t\t\t\n      DUP7 \t\t\t\n      ADD \t\t\t\n      DUP3 \t\t\t\n      PUSH [tag] 52\t\t\t\n      JUMP \t\t\t\n    tag 112\t\t\t\n      JUMPDEST \t\t\t\n      POP \t\t\t\n      PUSH 20\t\t\t\n      DUP4 \t\t\t\n      ADD \t\t\t\n      MLOAD \t\t\t\n      DUP5 \t\t\t\n      DUP3 \t\t\t\n      SUB \t\t\t\n      PUSH 20\t\t\t\n      DUP7 \t\t\t\n      ADD \t\t\t\n      MSTORE \t\t\t\n      PUSH [tag] 113\t\t\t\n      DUP3 \t\t\t\n      DUP3 \t\t\t\n      PUSH [tag] 57\t\t\t\n      JUMP \t\t\t\n    tag 113\t\t\t\n      JUMPDEST \t\t\t\n      SWAP2 \t\t\t\n      POP \t\t\t\n      POP \t\t\t\n      PUSH 40\t\t\t\n      DUP4 \t\t\t\n      ADD \t\t\t\n      MLOAD \t\t\t\n      PUSH [tag] 114\t\t\t\n      PUSH 40\t\t\t\n      DUP7 \t\t\t\n      ADD \t\t\t\n      DUP3 \t\t\t\n      PUSH [tag] 52\t\t\t\n      JUMP \t\t\t\n    tag 114\t\t\t\n      JUMPDEST \t\t\t\n      POP \t\t\t\n      PUSH 60\t\t\t\n      DUP4 \t\t\t\n      ADD \t\t\t\n      MLOAD \t\t\t\n      PUSH [tag] 115\t\t\t\n      PUSH 60\t\t\t\n      DUP7 \t\t\t\n      ADD \t\t\t\n      DUP3 \t\t\t\n      PUSH [tag] 52\t\t\t\n      JUMP \t\t\t\n    tag 115\t\t\t\n      JUMPDEST \t\t\t\n      POP \t\t\t\n      DUP1 \t\t\t\n      SWAP2 \t\t\t\n      POP \t\t\t\n      POP \t\t\t\n      SWAP3 \t\t\t\n      SWAP2 \t\t\t\n      POP \t\t\t\n      POP \t\t\t\n      JUMP \t\t\t\n    tag 59\t\t\t\n      JUMPDEST \t\t\t\n      PUSH 0\t\t\t\n      PUSH [tag] 117\t\t\t\n      DUP4 \t\t\t\n      DUP4 \t\t\t\n      PUSH [tag] 58\t\t\t\n      JUMP \t\t\t\n    tag 117\t\t\t\n      JUMPDEST \t\t\t\n      SWAP1 \t\t\t\n      POP \t\t\t\n      SWAP3 \t\t\t\n      SWAP2 \t\t\t\n      POP \t\t\t\n      POP \t\t\t\n      JUMP \t\t\t\n    tag 60\t\t\t\n      JUMPDEST \t\t\t\n      PUSH 0\t\t\t\n      PUSH 20\t\t\t\n      DUP3 \t\t\t\n      ADD \t\t\t\n      SWAP1 \t\t\t\n      POP \t\t\t\n      SWAP2 \t\t\t\n      SWAP1 \t\t\t\n      POP \t\t\t\n      JUMP \t\t\t\n    tag 61\t\t\t\n      JUMPDEST \t\t\t\n      PUSH 0\t\t\t\n      PUSH [tag] 120\t\t\t\n      DUP3 \t\t\t\n      PUSH [tag] 48\t\t\t\n      JUMP \t\t\t\n    tag 120\t\t\t\n      JUMPDEST \t\t\t\n      PUSH [tag] 121\t\t\t\n      DUP2 \t\t\t\n      DUP6 \t\t\t\n      PUSH [tag] 49\t\t\t\n      JUMP \t\t\t\n    tag 121\t\t\t\n      JUMPDEST \t\t\t\n      SWAP4 \t\t\t\n      POP \t\t\t\n      DUP4 \t\t\t\n      PUSH 20\t\t\t\n      DUP3 \t\t\t\n      MUL \t\t\t\n      DUP6 \t\t\t\n      ADD \t\t\t\n      PUSH [tag] 122\t\t\t\n      DUP6 \t\t\t\n      PUSH [tag] 50\t\t\t\n      JUMP \t\t\t\n    tag 122\t\t\t\n      JUMPDEST \t\t\t\n      DUP1 \t\t\t\n      PUSH 0\t\t\t\n    tag 123\t\t\t\n      JUMPDEST \t\t\t\n      DUP6 \t\t\t\n      DUP2 \t\t\t\n      LT \t\t\t\n      ISZERO \t\t\t\n      PUSH [tag] 125\t\t\t\n      JUMPI \t\t\t\n      DUP5 \t\t\t\n      DUP5 \t\t\t\n      SUB \t\t\t\n      DUP10 \t\t\t\n      MSTORE \t\t\t\n      DUP2 \t\t\t\n      MLOAD \t\t\t\n      PUSH [tag] 126\t\t\t\n      DUP6 \t\t\t\n      DUP3 \t\t\t\n      PUSH [tag] 59\t\t\t\n      JUMP \t\t\t\n    tag 126\t\t\t\n      JUMPDEST \t\t\t\n      SWAP5 \t\t\t\n      POP \t\t\t\n      PUSH [tag] 127\t\t\t\n      DUP4 \t\t\t\n      PUSH [tag] 60\t\t\t\n      JUMP \t\t\t\n    tag 127\t\t\t\n      JUMPDEST \t\t\t\n      SWAP3 \t\t\t\n      POP \t\t\t\n      PUSH 20\t\t\t\n      DUP11 \t\t\t\n      ADD \t\t\t\n      SWAP10 \t\t\t\n      POP \t\t\t\n      POP \t\t\t\n      PUSH 1\t\t\t\n      DUP2 \t\t\t\n      ADD \t\t\t\n      SWAP1 \t\t\t\n      POP \t\t\t\n      PUSH [tag] 123\t\t\t\n      JUMP \t\t\t\n    tag 125\t\t\t\n      JUMPDEST \t\t\t\n      POP \t\t\t\n      DUP3 \t\t\t\n      SWAP8 \t\t\t\n      POP \t\t\t\n      DUP8 \t\t\t\n      SWAP6 \t\t\t\n      POP \t\t\t\n      POP \t\t\t\n      POP \t\t\t\n      POP \t\t\t\n      POP \t\t\t\n      POP \t\t\t\n      SWAP3 \t\t\t\n      SWAP2 \t\t\t\n      POP \t\t\t\n      POP \t\t\t\n      JUMP \t\t\t\n    tag 10\t\t\t\n      JUMPDEST \t\t\t\n      PUSH 0\t\t\t\n      PUSH 20\t\t\t\n      DUP3 \t\t\t\n      ADD \t\t\t\n      SWAP1 \t\t\t\n      POP \t\t\t\n      DUP2 \t\t\t\n      DUP2 \t\t\t\n      SUB \t\t\t\n      PUSH 0\t\t\t\n      DUP4 \t\t\t\n      ADD \t\t\t\n      MSTORE \t\t\t\n      PUSH [tag] 129\t\t\t\n      DUP2 \t\t\t\n      DUP5 \t\t\t\n      PUSH [tag] 61\t\t\t\n      JUMP \t\t\t\n    tag 129\t\t\t\n      JUMPDEST \t\t\t\n      SWAP1 \t\t\t\n      POP \t\t\t\n      SWAP3 \t\t\t\n      SWAP2 \t\t\t\n      POP \t\t\t\n      POP \t\t\t\n      JUMP \t\t\t\n    tag 62\t\t\t\n      JUMPDEST \t\t\t\n      PUSH 0\t\t\t\n      PUSH 40\t\t\t\n      MLOAD \t\t\t\n      SWAP1 \t\t\t\n      POP \t\t\t\n      SWAP1 \t\t\t\n      JUMP \t\t\t\n    tag 63\t\t\t\n      JUMPDEST \t\t\t\n      PUSH 0\t\t\t\n      DUP1 \t\t\t\n      REVERT \t\t\t\n    tag 64\t\t\t\n      JUMPDEST \t\t\t\n      PUSH 0\t\t\t\n      DUP1 \t\t\t\n      REVERT \t\t\t\n    tag 65\t\t\t\n      JUMPDEST \t\t\t\n      PUSH [tag] 134\t\t\t\n      DUP2 \t\t\t\n      PUSH [tag] 51\t\t\t\n      JUMP \t\t\t\n    tag 134\t\t\t\n      JUMPDEST \t\t\t\n      DUP2 \t\t\t\n      EQ \t\t\t\n      PUSH [tag] 135\t\t\t\n      JUMPI \t\t\t\n      PUSH 0\t\t\t\n      DUP1 \t\t\t\n      REVERT \t\t\t\n    tag 135\t\t\t\n      JUMPDEST \t\t\t\n      POP \t\t\t\n      JUMP \t\t\t\n    tag 66\t\t\t\n      JUMPDEST \t\t\t\n      PUSH 0\t\t\t\n      DUP2 \t\t\t\n      CALLDATALOAD \t\t\t\n      SWAP1 \t\t\t\n      POP \t\t\t\n      PUSH [tag] 137\t\t\t\n      DUP2 \t\t\t\n      PUSH [tag] 65\t\t\t\n      JUMP \t\t\t\n    tag 137\t\t\t\n      JUMPDEST \t\t\t\n      SWAP3 \t\t\t\n      SWAP2 \t\t\t\n      POP \t\t\t\n      POP \t\t\t\n      JUMP \t\t\t\n    tag 13\t\t\t\n      JUMPDEST \t\t\t\n      PUSH 0\t\t\t\n      PUSH 20\t\t\t\n      DUP3 \t\t\t\n      DUP5 \t\t\t\n      SUB \t\t\t\n      SLT \t\t\t\n      ISZERO \t\t\t\n      PUSH [tag] 139\t\t\t\n      JUMPI \t\t\t\n      PUSH [tag] 140\t\t\t\n      PUSH [tag] 63\t\t\t\n      JUMP \t\t\t\n    tag 140\t\t\t\n      JUMPDEST \t\t\t\n    tag 139\t\t\t\n      JUMPDEST \t\t\t\n      PUSH 0\t\t\t\n      PUSH [tag] 141\t\t\t\n      DUP5 \t\t\t\n      DUP3 \t\t\t\n      DUP6 \t\t\t\n      ADD \t\t\t\n      PUSH [tag] 66\t\t\t\n      JUMP \t\t\t\n    tag 141\t\t\t\n      JUMPDEST \t\t\t\n      SWAP2 \t\t\t\n      POP \t\t\t\n      POP \t\t\t\n      SWAP3 \t\t\t\n      SWAP2 \t\t\t\n      POP \t\t\t\n      POP \t\t\t\n      JUMP \t\t\t\n    tag 67\t\t\t\n      JUMPDEST \t\t\t\n      PUSH [tag] 143\t\t\t\n      DUP2 \t\t\t\n      PUSH [tag] 51\t\t\t\n      JUMP \t\t\t\n    tag 143\t\t\t\n      JUMPDEST \t\t\t\n      DUP3 \t\t\t\n      MSTORE \t\t\t\n      POP \t\t\t\n      POP \t\t\t\n      JUMP \t\t\t\n    tag 68\t\t\t\n      JUMPDEST \t\t\t\n      PUSH 0\t\t\t\n      DUP3 \t\t\t\n      DUP3 \t\t\t\n      MSTORE \t\t\t\n      PUSH 20\t\t\t\n      DUP3 \t\t\t\n      ADD \t\t\t\n      SWAP1 \t\t\t\n      POP \t\t\t\n      SWAP3 \t\t\t\n      SWAP2 \t\t\t\n      POP \t\t\t\n      POP \t\t\t\n      JUMP \t\t\t\n    tag 69\t\t\t\n      JUMPDEST \t\t\t\n      PUSH 0\t\t\t\n      PUSH [tag] 146\t\t\t\n      DUP3 \t\t\t\n      PUSH [tag] 53\t\t\t\n      JUMP \t\t\t\n    tag 146\t\t\t\n      JUMPDEST \t\t\t\n      PUSH [tag] 147\t\t\t\n      DUP2 \t\t\t\n      DUP6 \t\t\t\n      PUSH [tag] 68\t\t\t\n      JUMP \t\t\t\n    tag 147\t\t\t\n      JUMPDEST \t\t\t\n      SWAP4 \t\t\t\n      POP \t\t\t\n      PUSH [tag] 148\t\t\t\n      DUP2 \t\t\t\n      DUP6 \t\t\t\n      PUSH 20\t\t\t\n      DUP7 \t\t\t\n      ADD \t\t\t\n      PUSH [tag] 55\t\t\t\n      JUMP \t\t\t\n    tag 148\t\t\t\n      JUMPDEST \t\t\t\n      PUSH [tag] 149\t\t\t\n      DUP2 \t\t\t\n      PUSH [tag] 56\t\t\t\n      JUMP \t\t\t\n    tag 149\t\t\t\n      JUMPDEST \t\t\t\n      DUP5 \t\t\t\n      ADD \t\t\t\n      SWAP2 \t\t\t\n      POP \t\t\t\n      POP \t\t\t\n      SWAP3 \t\t\t\n      SWAP2 \t\t\t\n      POP \t\t\t\n      POP \t\t\t\n      JUMP \t\t\t\n    tag 16\t\t\t\n      JUMPDEST \t\t\t\n      PUSH 0\t\t\t\n      PUSH 80\t\t\t\n      DUP3 \t\t\t\n      ADD \t\t\t\n      SWAP1 \t\t\t\n      POP \t\t\t\n      PUSH [tag] 151\t\t\t\n      PUSH 0\t\t\t\n      DUP4 \t\t\t\n      ADD \t\t\t\n      DUP8 \t\t\t\n      PUSH [tag] 67\t\t\t\n      JUMP \t\t\t\n    tag 151\t\t\t\n      JUMPDEST \t\t\t\n      DUP2 \t\t\t\n      DUP2 \t\t\t\n      SUB \t\t\t\n      PUSH 20\t\t\t\n      DUP4 \t\t\t\n      ADD \t\t\t\n      MSTORE \t\t\t\n      PUSH [tag] 152\t\t\t\n      DUP2 \t\t\t\n      DUP7 \t\t\t\n      PUSH [tag] 69\t\t\t\n      JUMP \t\t\t\n    tag 152\t\t\t\n      JUMPDEST \t\t\t\n      SWAP1 \t\t\t\n      POP \t\t\t\n      PUSH [tag] 153\t\t\t\n      PUSH 40\t\t\t\n      DUP4 \t\t\t\n      ADD \t\t\t\n      DUP6 \t\t\t\n      PUSH [tag] 67\t\t\t\n      JUMP \t\t\t\n    tag 153\t\t\t\n      JUMPDEST \t\t\t\n      PUSH [tag] 154\t\t\t\n      PUSH 60\t\t\t\n      DUP4 \t\t\t\n      ADD \t\t\t\n      DUP5 \t\t\t\n      PUSH [tag] 67\t\t\t\n      JUMP \t\t\t\n    tag 154\t\t\t\n      JUMPDEST \t\t\t\n      SWAP6 \t\t\t\n      SWAP5 \t\t\t\n      POP \t\t\t\n      POP \t\t\t\n      POP \t\t\t\n      POP \t\t\t\n      POP \t\t\t\n      JUMP \t\t\t\n    tag 20\t\t\t\n      JUMPDEST \t\t\t\n      PUSH 0\t\t\t\n      PUSH 20\t\t\t\n      DUP3 \t\t\t\n      ADD \t\t\t\n      SWAP1 \t\t\t\n      POP \t\t\t\n      PUSH [tag] 156\t\t\t\n      PUSH 0\t\t\t\n      DUP4 \t\t\t\n      ADD \t\t\t\n      DUP5 \t\t\t\n      PUSH [tag] 67\t\t\t\n      JUMP \t\t\t\n    tag 156\t\t\t\n      JUMPDEST \t\t\t\n      SWAP3 \t\t\t\n      SWAP2 \t\t\t\n      POP \t\t\t\n      POP \t\t\t\n      JUMP \t\t\t\n    tag 70\t\t\t\n      JUMPDEST \t\t\t\n      PUSH 0\t\t\t\n      DUP1 \t\t\t\n      REVERT \t\t\t\n    tag 71\t\t\t\n      JUMPDEST \t\t\t\n      PUSH 0\t\t\t\n      DUP1 \t\t\t\n      REVERT \t\t\t\n    tag 72\t\t\t\n      JUMPDEST \t\t\t\n      PUSH 4E487B7100000000000000000000000000000000000000000000000000000000\t\t\t\n      PUSH 0\t\t\t\n      MSTORE \t\t\t\n      PUSH 41\t\t\t\n      PUSH 4\t\t\t\n      MSTORE \t\t\t\n      PUSH 24\t\t\t\n      PUSH 0\t\t\t\n      REVERT \t\t\t\n    tag 73\t\t\t\n      JUMPDEST \t\t\t\n      PUSH [tag] 161\t\t\t\n      DUP3 \t\t\t\n      PUSH [tag] 56\t\t\t\n      JUMP \t\t\t\n    tag 161\t\t\t\n      JUMPDEST \t\t\t\n      DUP2 \t\t\t\n      ADD \t\t\t\n      DUP2 \t\t\t\n      DUP2 \t\t\t\n      LT \t\t\t\n      PUSH FFFFFFFFFFFFFFFF\t\t\t\n      DUP3 \t\t\t\n      GT \t\t\t\n      OR \t\t\t\n      ISZERO \t\t\t\n      PUSH [tag] 162\t\t\t\n      JUMPI \t\t\t\n      PUSH [tag] 163\t\t\t\n      PUSH [tag] 72\t\t\t\n      JUMP \t\t\t\n    tag 163\t\t\t\n      JUMPDEST \t\t\t\n    tag 162\t\t\t\n      JUMPDEST \t\t\t\n      DUP1 \t\t\t\n      PUSH 40\t\t\t\n      MSTORE \t\t\t\n      POP \t\t\t\n      POP \t\t\t\n      POP \t\t\t\n      JUMP \t\t\t\n    tag 74\t\t\t\n      JUMPDEST \t\t\t\n      PUSH 0\t\t\t\n      PUSH [tag] 165\t\t\t\n      PUSH [tag] 62\t\t\t\n      JUMP \t\t\t\n    tag 165\t\t\t\n      JUMPDEST \t\t\t\n      SWAP1 \t\t\t\n      POP \t\t\t\n      PUSH [tag] 166\t\t\t\n      DUP3 \t\t\t\n      DUP3 \t\t\t\n      PUSH [tag] 73\t\t\t\n      JUMP \t\t\t\n    tag 166\t\t\t\n      JUMPDEST \t\t\t\n      SWAP2 \t\t\t\n      SWAP1 \t\t\t\n      POP \t\t\t\n      JUMP \t\t\t\n    tag 75\t\t\t\n      JUMPDEST \t\t\t\n      PUSH 0\t\t\t\n      PUSH FFFFFFFFFFFFFFFF\t\t\t\n      DUP3 \t\t\t\n      GT \t\t\t\n      ISZERO \t\t\t\n      PUSH [tag] 168\t\t\t\n      JUMPI \t\t\t\n      PUSH [tag] 169\t\t\t\n      PUSH [tag] 72\t\t\t\n      JUMP \t\t\t\n    tag 169\t\t\t\n      JUMPDEST \t\t\t\n    tag 168\t\t\t\n      JUMPDEST \t\t\t\n      PUSH [tag] 170\t\t\t\n      DUP3 \t\t\t\n      PUSH [tag] 56\t\t\t\n      JUMP \t\t\t\n    tag 170\t\t\t\n      JUMPDEST \t\t\t\n      SWAP1 \t\t\t\n      POP \t\t\t\n      PUSH 20\t\t\t\n      DUP2 \t\t\t\n      ADD \t\t\t\n      SWAP1 \t\t\t\n      POP \t\t\t\n      SWAP2 \t\t\t\n      SWAP1 \t\t\t\n      POP \t\t\t\n      JUMP \t\t\t\n    tag 76\t\t\t\n      JUMPDEST \t\t\t\n      DUP3 \t\t\t\n      DUP2 \t\t\t\n      DUP4 \t\t\t\n      CALLDATACOPY \t\t\t\n      PUSH 0\t\t\t\n      DUP4 \t\t\t\n      DUP4 \t\t\t\n      ADD \t\t\t\n      MSTORE \t\t\t\n      POP \t\t\t\n      POP \t\t\t\n      POP \t\t\t\n      JUMP \t\t\t\n    tag 77\t\t\t\n      JUMPDEST \t\t\t\n      PUSH 0\t\t\t\n      PUSH [tag] 173\t\t\t\n      PUSH [tag] 174\t\t\t\n      DUP5 \t\t\t\n      PUSH [tag] 75\t\t\t\n      JUMP \t\t\t\n    tag 174\t\t\t\n      JUMPDEST \t\t\t\n      PUSH [tag] 74\t\t\t\n      JUMP \t\t\t\n    tag 173\t\t\t\n      JUMPDEST \t\t\t\n      SWAP1 \t\t\t\n      POP \t\t\t\n      DUP3 \t\t\t\n      DUP2 \t\t\t\n      MSTORE \t\t\t\n      PUSH 20\t\t\t\n      DUP2 \t\t\t\n      ADD \t\t\t\n      DUP5 \t\t\t\n      DUP5 \t\t\t\n      DUP5 \t\t\t\n      ADD \t\t\t\n      GT \t\t\t\n      ISZERO \t\t\t\n      PUSH [tag] 175\t\t\t\n      JUMPI \t\t\t\n      PUSH [tag] 176\t\t\t\n      PUSH [tag] 71\t\t\t\n      JUMP \t\t\t\n    tag 176\t\t\t\n      JUMPDEST \t\t\t\n    tag 175\t\t\t\n      JUMPDEST \t\t\t\n      PUSH [tag] 177\t\t\t\n      DUP5 \t\t\t\n      DUP3 \t\t\t\n      DUP6 \t\t\t\n      PUSH [tag] 76\t\t\t\n      JUMP \t\t\t\n    tag 177\t\t\t\n      JUMPDEST \t\t\t\n      POP \t\t\t\n      SWAP4 \t\t\t\n      SWAP3 \t\t\t\n      POP \t\t\t\n      POP \t\t\t\n      POP \t\t\t\n      JUMP \t\t\t\n    tag 78\t\t\t\n      JUMPDEST \t\t\t\n      PUSH 0\t\t\t\n      DUP3 \t\t\t\n      PUSH 1F\t\t\t\n      DUP4 \t\t\t\n      ADD \t\t\t\n      SLT \t\t\t\n      PUSH [tag] 179\t\t\t\n      JUMPI \t\t\t\n      PUSH [tag] 180\t\t\t\n      PUSH [tag] 70\t\t\t\n      JUMP \t\t\t\n    tag 180\t\t\t\n      JUMPDEST \t\t\t\n    tag 179\t\t\t\n      JUMPDEST \t\t\t\n      DUP2 \t\t\t\n      CALLDATALOAD \t\t\t\n      PUSH [tag] 181\t\t\t\n      DUP5 \t\t\t\n      DUP3 \t\t\t\n      PUSH 20\t\t\t\n      DUP7 \t\t\t\n      ADD \t\t\t\n      PUSH [tag] 77\t\t\t\n      JUMP \t\t\t\n    tag 181\t\t\t\n      JUMPDEST \t\t\t\n      SWAP2 \t\t\t\n      POP \t\t\t\n      POP \t\t\t\n      SWAP3 \t\t\t\n      SWAP2 \t\t\t\n      POP \t\t\t\n      POP \t\t\t\n      JUMP \t\t\t\n    tag 23\t\t\t\n      JUMPDEST \t\t\t\n      PUSH 0\t\t\t\n      DUP1 \t\t\t\n      PUSH 0\t\t\t\n      PUSH 60\t\t\t\n      DUP5 \t\t\t\n      DUP7 \t\t\t\n      SUB \t\t\t\n      SLT \t\t\t\n      ISZERO \t\t\t\n      PUSH [tag] 183\t\t\t\n      JUMPI \t\t\t\n      PUSH [tag] 184\t\t\t\n      PUSH [tag] 63\t\t\t\n      JUMP \t\t\t\n    tag 184\t\t\t\n      JUMPDEST \t\t\t\n    tag 183\t\t\t\n      JUMPDEST \t\t\t\n      PUSH 0\t\t\t\n      PUSH [tag] 185\t\t\t\n      DUP7 \t\t\t\n      DUP3 \t\t\t\n      DUP8 \t\t\t\n      ADD \t\t\t\n      PUSH [tag] 66\t\t\t\n      JUMP \t\t\t\n    tag 185\t\t\t\n      JUMPDEST \t\t\t\n      SWAP4 \t\t\t\n      POP \t\t\t\n      POP \t\t\t\n      PUSH 20\t\t\t\n      DUP5 \t\t\t\n      ADD \t\t\t\n      CALLDATALOAD \t\t\t\n      PUSH FFFFFFFFFFFFFFFF\t\t\t\n      DUP2 \t\t\t\n      GT \t\t\t\n      ISZERO \t\t\t\n      PUSH [tag] 186\t\t\t\n      JUMPI \t\t\t\n      PUSH [tag] 187\t\t\t\n      PUSH [tag] 64\t\t\t\n      JUMP \t\t\t\n    tag 187\t\t\t\n      JUMPDEST \t\t\t\n    tag 186\t\t\t\n      JUMPDEST \t\t\t\n      PUSH [tag] 188\t\t\t\n      DUP7 \t\t\t\n      DUP3 \t\t\t\n      DUP8 \t\t\t\n      ADD \t\t\t\n      PUSH [tag] 78\t\t\t\n      JUMP \t\t\t\n    tag 188\t\t\t\n      JUMPDEST \t\t\t\n      SWAP3 \t\t\t\n      POP \t\t\t\n      POP \t\t\t\n      PUSH 40\t\t\t\n      PUSH [tag] 189\t\t\t\n      DUP7 \t\t\t\n      DUP3 \t\t\t\n      DUP8 \t\t\t\n      ADD \t\t\t\n      PUSH [tag] 66\t\t\t\n      JUMP \t\t\t\n    tag 189\t\t\t\n      JUMPDEST \t\t\t\n      SWAP2 \t\t\t\n      POP \t\t\t\n      POP \t\t\t\n      SWAP3 \t\t\t\n      POP \t\t\t\n      SWAP3 \t\t\t\n      POP \t\t\t\n      SWAP3 \t\t\t\n      JUMP \t\t\t\n    tag 79\t\t\t\n      JUMPDEST \t\t\t\n      PUSH 4E487B7100000000000000000000000000000000000000000000000000000000\t\t\t\n      PUSH 0\t\t\t\n      MSTORE \t\t\t\n      PUSH 22\t\t\t\n      PUSH 4\t\t\t\n      MSTORE \t\t\t\n      PUSH 24\t\t\t\n      PUSH 0\t\t\t\n      REVERT \t\t\t\n    tag 30\t\t\t\n      JUMPDEST \t\t\t\n      PUSH 0\t\t\t\n      PUSH 2\t\t\t\n      DUP3 \t\t\t\n      DIV \t\t\t\n      SWAP1 \t\t\t\n      POP \t\t\t\n      PUSH 1\t\t\t\n      DUP3 \t\t\t\n      AND \t\t\t\n      DUP1 \t\t\t\n      PUSH [tag] 192\t\t\t\n      JUMPI \t\t\t\n      PUSH 7F\t\t\t\n      DUP3 \t\t\t\n      AND \t\t\t\n      SWAP2 \t\t\t\n      POP \t\t\t\n    tag 192\t\t\t\n      JUMPDEST \t\t\t\n      PUSH 20\t\t\t\n      DUP3 \t\t\t\n      LT \t\t\t\n      DUP2 \t\t\t\n      SUB \t\t\t\n      PUSH [tag] 193\t\t\t\n      JUMPI \t\t\t\n      PUSH [tag] 194\t\t\t\n      PUSH [tag] 79\t\t\t\n      JUMP \t\t\t\n    tag 194\t\t\t\n      JUMPDEST \t\t\t\n    tag 193\t\t\t\n      JUMPDEST \t\t\t\n      POP \t\t\t\n      SWAP2 \t\t\t\n      SWAP1 \t\t\t\n      POP \t\t\t\n      JUMP \t\t\t\n    tag 80\t\t\t\n      JUMPDEST \t\t\t\n      PUSH 0\t\t\t\n      DUP2 \t\t\t\n      SWAP1 \t\t\t\n      POP \t\t\t\n      DUP2 \t\t\t\n      PUSH 0\t\t\t\n      MSTORE \t\t\t\n      PUSH 20\t\t\t\n      PUSH 0\t\t\t\n      KECCAK256 \t\t\t\n      SWAP1 \t\t\t\n      POP \t\t\t\n      SWAP2 \t\t\t\n      SWAP1 \t\t\t\n      POP \t\t\t\n      JUMP \t\t\t\n    tag 81\t\t\t\n      JUMPDEST \t\t\t\n      PUSH 0\t\t\t\n      PUSH 20\t\t\t\n      PUSH 1F\t\t\t\n      DUP4 \t\t\t\n      ADD \t\t\t\n      DIV \t\t\t\n      SWAP1 \t\t\t\n      POP \t\t\t\n      SWAP2 \t\t\t\n      SWAP1 \t\t\t\n      POP \t\t\t\n      JUMP \t\t\t\n    tag 82\t\t\t\n      JUMPDEST \t\t\t\n      PUSH 0\t\t\t\n      DUP3 \t\t\t\n      DUP3 \t\t\t\n      SHL \t\t\t\n      SWAP1 \t\t\t\n      POP \t\t\t\n      SWAP3 \t\t\t\n      SWAP2 \t\t\t\n      POP \t\t\t\n      POP \t\t\t\n      JUMP \t\t\t\n    tag 83\t\t\t\n      JUMPDEST \t\t\t\n      PUSH 0\t\t\t\n      PUSH 8\t\t\t\n      DUP4 \t\t\t\n      MUL \t\t\t\n      PUSH [tag] 199\t\t\t\n      PUSH FFFFFFFFFFFFFFFFFFFFFFFFFFFFFFFFFFFFFFFFFFFFFFFFFFFFFFFFFFFFFFFF\t\t\t\n      DUP3 \t\t\t\n      PUSH [tag] 82\t\t\t\n      JUMP \t\t\t\n    tag 199\t\t\t\n      JUMPDEST \t\t\t\n      PUSH [tag] 200\t\t\t\n      DUP7 \t\t\t\n      DUP4 \t\t\t\n      PUSH [tag] 82\t\t\t\n      JUMP \t\t\t\n    tag 200\t\t\t\n      JUMPDEST \t\t\t\n      SWAP6 \t\t\t\n      POP \t\t\t\n      DUP1 \t\t\t\n      NOT \t\t\t\n      DUP5 \t\t\t\n      AND \t\t\t\n      SWAP4 \t\t\t\n      POP \t\t\t\n      DUP1 \t\t\t\n      DUP7 \t\t\t\n      AND \t\t\t\n      DUP5 \t\t\t\n      OR \t\t\t\n      SWAP3 \t\t\t\n      POP \t\t\t\n      POP \t\t\t\n      POP \t\t\t\n      SWAP4 \t\t\t\n      SWAP3 \t\t\t\n      POP \t\t\t\n      POP \t\t\t\n      POP \t\t\t\n      JUMP \t\t\t\n    tag 84\t\t\t\n      JUMPDEST \t\t\t\n      PUSH 0\t\t\t\n      DUP2 \t\t\t\n      SWAP1 \t\t\t\n      POP \t\t\t\n      SWAP2 \t\t\t\n      SWAP1 \t\t\t\n      POP \t\t\t\n      JUMP \t\t\t\n    tag 85\t\t\t\n      JUMPDEST \t\t\t\n      PUSH 0\t\t\t\n      PUSH [tag] 203\t\t\t\n      PUSH [tag] 204\t\t\t\n      PUSH [tag] 205\t\t\t\n      DUP5 \t\t\t\n      PUSH [tag] 51\t\t\t\n      JUMP \t\t\t\n    tag 205\t\t\t\n      JUMPDEST \t\t\t\n      PUSH [tag] 84\t\t\t\n      JUMP \t\t\t\n    tag 204\t\t\t\n      JUMPDEST \t\t\t\n      PUSH [tag] 51\t\t\t\n      JUMP \t\t\t\n    tag 203\t\t\t\n      JUMPDEST \t\t\t\n      SWAP1 \t\t\t\n      POP \t\t\t\n      SWAP2 \t\t\t\n      SWAP1 \t\t\t\n      POP \t\t\t\n      JUMP \t\t\t\n    tag 86\t\t\t\n      JUMPDEST \t\t\t\n      PUSH 0\t\t\t\n      DUP2 \t\t\t\n      SWAP1 \t\t\t\n      POP \t\t\t\n      SWAP2 \t\t\t\n      SWAP1 \t\t\t\n      POP \t\t\t\n      JUMP \t\t\t\n    tag 87\t\t\t\n      JUMPDEST \t\t\t\n      PUSH [tag] 208\t\t\t\n      DUP4 \t\t\t\n      PUSH [tag] 85\t\t\t\n      JUMP \t\t\t\n    tag 208\t\t\t\n      JUMPDEST \t\t\t\n      PUSH [tag] 209\t\t\t\n      PUSH [tag] 210\t\t\t\n      DUP3 \t\t\t\n      PUSH [tag] 86\t\t\t\n      JUMP \t\t\t\n    tag 210\t\t\t\n      JUMPDEST \t\t\t\n      DUP5 \t\t\t\n      DUP5 \t\t\t\n      SLOAD \t\t\t\n      PUSH [tag] 83\t\t\t\n      JUMP \t\t\t\n    tag 209\t\t\t\n      JUMPDEST \t\t\t\n      DUP3 \t\t\t\n      SSTORE \t\t\t\n      POP \t\t\t\n      POP \t\t\t\n      POP \t\t\t\n      POP \t\t\t\n      JUMP \t\t\t\n    tag 88\t\t\t\n      JUMPDEST \t\t\t\n      PUSH 0\t\t\t\n      SWAP1 \t\t\t\n      JUMP \t\t\t\n    tag 89\t\t\t\n      JUMPDEST \t\t\t\n      PUSH [tag] 213\t\t\t\n      PUSH [tag] 88\t\t\t\n      JUMP \t\t\t\n    tag 213\t\t\t\n      JUMPDEST \t\t\t\n      PUSH [tag] 214\t\t\t\n      DUP2 \t\t\t\n      DUP5 \t\t\t\n      DUP5 \t\t\t\n      PUSH [tag] 87\t\t\t\n      JUMP \t\t\t\n    tag 214\t\t\t\n      JUMPDEST \t\t\t\n      POP \t\t\t\n      POP \t\t\t\n      POP \t\t\t\n      JUMP \t\t\t\n    tag 90\t\t\t\n      JUMPDEST \t\t\t\n    tag 216\t\t\t\n      JUMPDEST \t\t\t\n      DUP2 \t\t\t\n      DUP2 \t\t\t\n      LT \t\t\t\n      ISZERO \t\t\t\n      PUSH [tag] 218\t\t\t\n      JUMPI \t\t\t\n      PUSH [tag] 219\t\t\t\n      PUSH 0\t\t\t\n      DUP3 \t\t\t\n      PUSH [tag] 89\t\t\t\n      JUMP \t\t\t\n    tag 219\t\t\t\n      JUMPDEST \t\t\t\n      PUSH 1\t\t\t\n      DUP2 \t\t\t\n      ADD \t\t\t\n      SWAP1 \t\t\t\n      POP \t\t\t\n      PUSH [tag] 216\t\t\t\n      JUMP \t\t\t\n    tag 218\t\t\t\n      JUMPDEST \t\t\t\n      POP \t\t\t\n      POP \t\t\t\n      JUMP \t\t\t\n    tag 91\t\t\t\n      JUMPDEST \t\t\t\n      PUSH 1F\t\t\t\n      DUP3 \t\t\t\n      GT \t\t\t\n      ISZERO \t\t\t\n      PUSH [tag] 221\t\t\t\n      JUMPI \t\t\t\n      PUSH [tag] 222\t\t\t\n      DUP2 \t\t\t\n      PUSH [tag] 80\t\t\t\n      JUMP \t\t\t\n    tag 222\t\t\t\n      JUMPDEST \t\t\t\n      PUSH [tag] 223\t\t\t\n      DUP5 \t\t\t\n      PUSH [tag] 81\t\t\t\n      JUMP \t\t\t\n    tag 223\t\t\t\n      JUMPDEST \t\t\t\n      DUP2 \t\t\t\n      ADD \t\t\t\n      PUSH 20\t\t\t\n      DUP6 \t\t\t\n      LT \t\t\t\n      ISZERO \t\t\t\n      PUSH [tag] 224\t\t\t\n      JUMPI \t\t\t\n      DUP2 \t\t\t\n      SWAP1 \t\t\t\n      POP \t\t\t\n    tag 224\t\t\t\n      JUMPDEST \t\t\t\n      PUSH [tag] 225\t\t\t\n      PUSH [tag] 226\t\t\t\n      DUP6 \t\t\t\n      PUSH [tag] 81\t\t\t\n      JUMP \t\t\t\n    tag 226\t\t\t\n      JUMPDEST \t\t\t\n      DUP4 \t\t\t\n      ADD \t\t\t\n      DUP3 \t\t\t\n      PUSH [tag] 90\t\t\t\n      JUMP \t\t\t\n    tag 225\t\t\t\n      JUMPDEST \t\t\t\n      POP \t\t\t\n      POP \t\t\t\n    tag 221\t\t\t\n      JUMPDEST \t\t\t\n      POP \t\t\t\n      POP \t\t\t\n      POP \t\t\t\n      JUMP \t\t\t\n    tag 92\t\t\t\n      JUMPDEST \t\t\t\n      PUSH 0\t\t\t\n      DUP3 \t\t\t\n      DUP3 \t\t\t\n      SHR \t\t\t\n      SWAP1 \t\t\t\n      POP \t\t\t\n      SWAP3 \t\t\t\n      SWAP2 \t\t\t\n      POP \t\t\t\n      POP \t\t\t\n      JUMP \t\t\t\n    tag 93\t\t\t\n      JUMPDEST \t\t\t\n      PUSH 0\t\t\t\n      PUSH [tag] 229\t\t\t\n      PUSH 0\t\t\t\n      NOT \t\t\t\n      DUP5 \t\t\t\n      PUSH 8\t\t\t\n      MUL \t\t\t\n      PUSH [tag] 92\t\t\t\n      JUMP \t\t\t\n    tag 229\t\t\t\n      JUMPDEST \t\t\t\n      NOT \t\t\t\n      DUP1 \t\t\t\n      DUP4 \t\t\t\n      AND \t\t\t\n      SWAP2 \t\t\t\n      POP \t\t\t\n      POP \t\t\t\n      SWAP3 \t\t\t\n      SWAP2 \t\t\t\n      POP \t\t\t\n      POP \t\t\t\n      JUMP \t\t\t\n    tag 94\t\t\t\n      JUMPDEST \t\t\t\n      PUSH 0\t\t\t\n      PUSH [tag] 231\t\t\t\n      DUP4 \t\t\t\n      DUP4 \t\t\t\n      PUSH [tag] 93\t\t\t\n      JUMP \t\t\t\n    tag 231\t\t\t\n      JUMPDEST \t\t\t\n      SWAP2 \t\t\t\n      POP \t\t\t\n      DUP3 \t\t\t\n      PUSH 2\t\t\t\n      MUL \t\t\t\n      DUP3 \t\t\t\n      OR \t\t\t\n      SWAP1 \t\t\t\n      POP \t\t\t\n      SWAP3 \t\t\t\n      SWAP2 \t\t\t\n      POP \t\t\t\n      POP \t\t\t\n      JUMP \t\t\t\n    tag 46\t\t\t\n      JUMPDEST \t\t\t\n      PUSH [tag] 233\t\t\t\n      DUP3 \t\t\t\n      PUSH [tag] 53\t\t\t\n      JUMP \t\t\t\n    tag 233\t\t\t\n      JUMPDEST \t\t\t\n      PUSH FFFFFFFFFFFFFFFF\t\t\t\n      DUP2 \t\t\t\n      GT \t\t\t\n      ISZERO \t\t\t\n      PUSH [tag] 234\t\t\t\n      JUMPI \t\t\t\n      PUSH [tag] 235\t\t\t\n      PUSH [tag] 72\t\t\t\n      JUMP \t\t\t\n    tag 235\t\t\t\n      JUMPDEST \t\t\t\n    tag 234\t\t\t\n      JUMPDEST \t\t\t\n      PUSH [tag] 236\t\t\t\n      DUP3 \t\t\t\n      SLOAD \t\t\t\n      PUSH [tag] 30\t\t\t\n      JUMP \t\t\t\n    tag 236\t\t\t\n      JUMPDEST \t\t\t\n      PUSH [tag] 237\t\t\t\n      DUP3 \t\t\t\n      DUP3 \t\t\t\n      DUP6 \t\t\t\n      PUSH [tag] 91\t\t\t\n      JUMP \t\t\t\n    tag 237\t\t\t\n      JUMPDEST \t\t\t\n      PUSH 0\t\t\t\n      PUSH 20\t\t\t\n      SWAP1 \t\t\t\n      POP \t\t\t\n      PUSH 1F\t\t\t\n      DUP4 \t\t\t\n      GT \t\t\t\n      PUSH 1\t\t\t\n      DUP2 \t\t\t\n      EQ \t\t\t\n      PUSH [tag] 239\t\t\t\n      JUMPI \t\t\t\n      PUSH 0\t\t\t\n      DUP5 \t\t\t\n      ISZERO \t\t\t\n      PUSH [tag] 240\t\t\t\n      JUMPI \t\t\t\n      DUP3 \t\t\t\n      DUP8 \t\t\t\n      ADD \t\t\t\n      MLOAD \t\t\t\n      SWAP1 \t\t\t\n      POP \t\t\t\n    tag 240\t\t\t\n      JUMPDEST \t\t\t\n      PUSH [tag] 241\t\t\t\n      DUP6 \t\t\t\n      DUP3 \t\t\t\n      PUSH [tag] 94\t\t\t\n      JUMP \t\t\t\n    tag 241\t\t\t\n      JUMPDEST \t\t\t\n      DUP7 \t\t\t\n      SSTORE \t\t\t\n      POP \t\t\t\n      PUSH [tag] 238\t\t\t\n      JUMP \t\t\t\n    tag 239\t\t\t\n      JUMPDEST \t\t\t\n      PUSH 1F\t\t\t\n      NOT \t\t\t\n      DUP5 \t\t\t\n      AND \t\t\t\n      PUSH [tag] 242\t\t\t\n      DUP7 \t\t\t\n      PUSH [tag] 80\t\t\t\n      JUMP \t\t\t\n    tag 242\t\t\t\n      JUMPDEST \t\t\t\n      PUSH 0\t\t\t\n    tag 243\t\t\t\n      JUMPDEST \t\t\t\n      DUP3 \t\t\t\n      DUP2 \t\t\t\n      LT \t\t\t\n      ISZERO \t\t\t\n      PUSH [tag] 245\t\t\t\n      JUMPI \t\t\t\n      DUP5 \t\t\t\n      DUP10 \t\t\t\n      ADD \t\t\t\n      MLOAD \t\t\t\n      DUP3 \t\t\t\n      SSTORE \t\t\t\n      PUSH 1\t\t\t\n      DUP3 \t\t\t\n      ADD \t\t\t\n      SWAP2 \t\t\t\n      POP \t\t\t\n      PUSH 20\t\t\t\n      DUP6 \t\t\t\n      ADD \t\t\t\n      SWAP5 \t\t\t\n      POP \t\t\t\n      PUSH 20\t\t\t\n      DUP2 \t\t\t\n      ADD \t\t\t\n      SWAP1 \t\t\t\n      POP \t\t\t\n      PUSH [tag] 243\t\t\t\n      JUMP \t\t\t\n    tag 245\t\t\t\n      JUMPDEST \t\t\t\n      DUP7 \t\t\t\n      DUP4 \t\t\t\n      LT \t\t\t\n      ISZERO \t\t\t\n      PUSH [tag] 246\t\t\t\n      JUMPI \t\t\t\n      DUP5 \t\t\t\n      DUP10 \t\t\t\n      ADD \t\t\t\n      MLOAD \t\t\t\n      PUSH [tag] 247\t\t\t\n      PUSH 1F\t\t\t\n      DUP10 \t\t\t\n      AND \t\t\t\n      DUP3 \t\t\t\n      PUSH [tag] 93\t\t\t\n      JUMP \t\t\t\n    tag 247\t\t\t\n      JUMPDEST \t\t\t\n      DUP4 \t\t\t\n      SSTORE \t\t\t\n      POP \t\t\t\n    tag 246\t\t\t\n      JUMPDEST \t\t\t\n      PUSH 1\t\t\t\n      PUSH 2\t\t\t\n      DUP9 \t\t\t\n      MUL \t\t\t\n      ADD \t\t\t\n      DUP9 \t\t\t\n      SSTORE \t\t\t\n      POP \t\t\t\n      POP \t\t\t\n      POP \t\t\t\n    tag 238\t\t\t\n      JUMPDEST \t\t\t\n      POP \t\t\t\n      POP \t\t\t\n      POP \t\t\t\n      POP \t\t\t\n      POP \t\t\t\n      POP \t\t\t\n      JUMP \t\t\t\n    .data\n"
}